{
  "transactions": [
    {
      "hash": "0xa6ae406f9ff4f4502a8c3d00c267778de5f64e37185a100b4ebdf1c1eeed0b3e",
      "transactionType": "CALL",
      "contractName": null,
      "contractAddress": "0x6da70c3c286e44f8965c0c26d7d47dba074e9db0",
      "function": "sendMessage(uint16,address,string)",
      "arguments": [
        "10004",
        "0x5E8A1114CeFE32e234F5241031592afb0E9F831D",
        "Hello,sepolia!"
      ],
      "transaction": {
        "from": "0x12b2434a1022d5787bf06056f2885fe35de62bf8",
        "to": "0x6da70c3c286e44f8965c0c26d7d47dba074e9db0",
        "gas": "0x30a65",
        "value": "0x4f977e5a382",
        "input": "0xafd4448800000000000000000000000000000000000000000000000000000000000027140000000000000000000000005e8a1114cefe32e234f5241031592afb0e9f831d0000000000000000000000000000000000000000000000000000000000000060000000000000000000000000000000000000000000000000000000000000000e48656c6c6f2c7365706f6c696121000000000000000000000000000000000000",
        "nonce": "0x40",
        "chainId": "0xaa36a7"
      },
      "additionalContracts": [],
      "isFixedGasLimit": false
    }
  ],
  "receipts": [
    {
      "status": "0x1",
      "cumulativeGasUsed": "0xba3bda",
      "logs": [
        {
          "address": "0x4a8bc80ed5a4067f1ccf107057b8270e0cc11a78",
          "topics": [
            "0x6eb224fb001ed210e379b335e35efe88672a8ce935d981a6896b27ffdf52a3b2",
            "0x0000000000000000000000007b1bd7a6b4e61c2a123ac6bc2cbfc614437d0470"
          ],
          "data": "0x0000000000000000000000000000000000000000000000000000000000009c1600000000000000000000000000000000000000000000000000000000000000000000000000000000000000000000000000000000000000000000000000000080000000000000000000000000000000000000000000000000000000000000000f00000000000000000000000000000000000000000000000000000000000001ce0127140000000000000000000000005e8a1114cefe32e234f5241031592afb0e9f831d00000080000000000000000000000000000000000000000000000000000000000000004000000000000000000000000012b2434a1022d5787bf06056f2885fe35de62bf8000000000000000000000000000000000000000000000000000000000000000e48656c6c6f2c7365706f6c69612100000000000000000000000000000000000000000000000000000000000000000000000000000000000000000000000000000000000000000000000000000000000000000000000000000000000000000000000000600000000000000000000000000000000000000000000000000000000000000000000000000000000000000000000000000000000000000000000000000003d0900000000000000000000000000000000000000000000000000000000000a0a839271400000000000000000000000000000000000000000000000000000000000000000000000000000000000000007a0a53847776f7e94cc35742971acb2217b0db810000000000000000000000007a0a53847776f7e94cc35742971acb2217b0db810000000000000000000000006da70c3c286e44f8965c0c26d7d47dba074e9db000000000000000000000000000000000000000",
          "blockHash": "0x7aaca93ddff17ed5c9b9693ce121fcd769104950afaf573b67459c81b8e8ea0c",
          "blockNumber": "0x68b0d2",
          "transactionHash": "0xa6ae406f9ff4f4502a8c3d00c267778de5f64e37185a100b4ebdf1c1eeed0b3e",
          "transactionIndex": "0x3e",
          "logIndex": "0x4b",
          "removed": false
        },
        {
          "address": "0x7b1bd7a6b4e61c2a123ac6bc2cbfc614437d0470",
          "topics": [
            "0xda8540426b64ece7b164a9dce95448765f0a7263ef3ff85091c9c7361e485364",
            "0x0000000000000000000000000000000000000000000000000000000000009c16"
          ],
          "data": "0x000000000000000000000000000000000000000000000000000004f977e5a3820000000000000000000000000000000000000000000000000000000000000000",
          "blockHash": "0x7aaca93ddff17ed5c9b9693ce121fcd769104950afaf573b67459c81b8e8ea0c",
          "blockNumber": "0x68b0d2",
          "transactionHash": "0xa6ae406f9ff4f4502a8c3d00c267778de5f64e37185a100b4ebdf1c1eeed0b3e",
          "transactionIndex": "0x3e",
          "logIndex": "0x4c",
          "removed": false
        }
      ],
      "logsBloom": "0x00000000000100040000000000000010000000000000000000000000000000000010000000000000000000001000000000000000800040000000000000000000000000000000000000000000000080000000000000000000000000000100000000000000000000000000000000000000000000000000000000000000000000000080000000000000000000000100000000000000000000000000108000000000000000000400000000000000000002000000000000000000000000000000000000000000000000080000000000000000000000000000000000000000000000000400000000000000000000020000000000000000000000000000000000000000",
      "type": "0x2",
      "transactionHash": "0xa6ae406f9ff4f4502a8c3d00c267778de5f64e37185a100b4ebdf1c1eeed0b3e",
      "transactionIndex": "0x3e",
      "blockHash": "0x7aaca93ddff17ed5c9b9693ce121fcd769104950afaf573b67459c81b8e8ea0c",
      "blockNumber": "0x68b0d2",
      "gasUsed": "0x2338c",
      "effectiveGasPrice": "0x19025678f",
      "from": "0x12b2434a1022d5787bf06056f2885fe35de62bf8",
      "to": "0x6da70c3c286e44f8965c0c26d7d47dba074e9db0",
      "contractAddress": null
    }
  ],
  "libraries": [],
  "pending": [],
  "returns": {},
  "timestamp": 1728717461,
  "chain": 11155111,
  "commit": "cfe243b"
}