{
  "transactions": [
    {
      "hash": "0xebe9df8450b6e4904f729ff9191fbf0a9e81da8cfc419a8ee7c9f00cf8146a0f",
      "transactionType": "CALL",
      "contractName": null,
      "contractAddress": "0x1c7d4b196cb0c7b01d743fbc6116a902379c7238",
      "function": "approve(address,uint256)",
      "arguments": [
        "0x89AD215eF488E254B804162c83d6BC7DE0e1519c",
        "1000000"
      ],
      "transaction": {
        "from": "0x12b2434a1022d5787bf06056f2885fe35de62bf8",
        "to": "0x1c7d4b196cb0c7b01d743fbc6116a902379c7238",
        "gas": "0x12b1b",
        "value": "0x0",
        "input": "0x095ea7b300000000000000000000000089ad215ef488e254b804162c83d6bc7de0e1519c00000000000000000000000000000000000000000000000000000000000f4240",
        "nonce": "0x3b",
        "chainId": "0xaa36a7"
      },
      "additionalContracts": [],
      "isFixedGasLimit": false
    },
    {
      "hash": "0x6dc5769e90b15ee5e93013a248424691fecd7f3bb163d95588053227f6f71201",
      "transactionType": "CALL",
      "contractName": null,
      "contractAddress": "0x89ad215ef488e254b804162c83d6bc7de0e1519c",
      "function": "sendCrossChainDeposit(uint16,address,address,uint256,address)",
      "arguments": [
        "10004",
        "0xC6Ab09b398BDae7b8A473faD24F4773d4f8Aa47a",
        "0x12B2434a1022d5787bf06056F2885Fe35De62Bf8",
        "1000000",
        "0x1c7D4B196Cb0C7B01d743Fbc6116a902379C7238"
      ],
      "transaction": {
        "from": "0x12b2434a1022d5787bf06056f2885fe35de62bf8",
        "to": "0x89ad215ef488e254b804162c83d6bc7de0e1519c",
        "gas": "0x5780f",
        "value": "0x4f977e5a382",
        "input": "0x8d3ea4890000000000000000000000000000000000000000000000000000000000002714000000000000000000000000c6ab09b398bdae7b8a473fad24f4773d4f8aa47a00000000000000000000000012b2434a1022d5787bf06056f2885fe35de62bf800000000000000000000000000000000000000000000000000000000000f42400000000000000000000000001c7d4b196cb0c7b01d743fbc6116a902379c7238",
        "nonce": "0x3c",
        "chainId": "0xaa36a7"
      },
      "additionalContracts": [],
      "isFixedGasLimit": false
    }
  ],
  "receipts": [
    {
      "status": "0x1",
      "cumulativeGasUsed": "0xf84b97",
      "logs": [
        {
          "address": "0x1c7d4b196cb0c7b01d743fbc6116a902379c7238",
          "topics": [
            "0x8c5be1e5ebec7d5bd14f71427d1e84f3dd0314c0f7b2291e5b200ac8c7c3b925",
            "0x00000000000000000000000012b2434a1022d5787bf06056f2885fe35de62bf8",
            "0x00000000000000000000000089ad215ef488e254b804162c83d6bc7de0e1519c"
          ],
          "data": "0x00000000000000000000000000000000000000000000000000000000000f4240",
          "blockHash": "0x11392dc273d7afe87fdd3bf218309579a5677351c273c0310d6c71f9d9ccc6ee",
          "blockNumber": "0x68a4f3",
          "transactionHash": "0xebe9df8450b6e4904f729ff9191fbf0a9e81da8cfc419a8ee7c9f00cf8146a0f",
          "transactionIndex": "0x64",
          "logIndex": "0x98",
          "removed": false
        }
      ],
      "logsBloom": "0x00000000000000000000000000000000000000000000000000000000000200000000000000000000000000000000000000000000000000000000000000200000000000000000800000000000200000000000000000000000000000000000000000000000000000000000000000000000000000000000000000000000000000000000000000100000000000000000000080000000000000000000000000000010020000000000000000000000000000000000000400000000000000000000000000000000000000000000000000000000000000000000000000000000002000000010000000000000000010000000000000000000000000000000000000000000",
      "type": "0x2",
      "transactionHash": "0xebe9df8450b6e4904f729ff9191fbf0a9e81da8cfc419a8ee7c9f00cf8146a0f",
      "transactionIndex": "0x64",
      "blockHash": "0x11392dc273d7afe87fdd3bf218309579a5677351c273c0310d6c71f9d9ccc6ee",
      "blockNumber": "0x68a4f3",
      "gasUsed": "0xd88d",
      "effectiveGasPrice": "0x8875c702",
      "from": "0x12b2434a1022d5787bf06056f2885fe35de62bf8",
      "to": "0x1c7d4b196cb0c7b01d743fbc6116a902379c7238",
      "contractAddress": null
    },
    {
      "status": "0x1",
      "cumulativeGasUsed": "0xfc4136",
      "logs": [
        {
          "address": "0x1c7d4b196cb0c7b01d743fbc6116a902379c7238",
          "topics": [
            "0xddf252ad1be2c89b69c2b068fc378daa952ba7f163c4a11628f55a4df523b3ef",
            "0x00000000000000000000000012b2434a1022d5787bf06056f2885fe35de62bf8",
            "0x00000000000000000000000089ad215ef488e254b804162c83d6bc7de0e1519c"
          ],
          "data": "0x00000000000000000000000000000000000000000000000000000000000f4240",
          "blockHash": "0x11392dc273d7afe87fdd3bf218309579a5677351c273c0310d6c71f9d9ccc6ee",
          "blockNumber": "0x68a4f3",
          "transactionHash": "0x6dc5769e90b15ee5e93013a248424691fecd7f3bb163d95588053227f6f71201",
          "transactionIndex": "0x65",
          "logIndex": "0x99",
          "removed": false
        },
        {
          "address": "0x1c7d4b196cb0c7b01d743fbc6116a902379c7238",
          "topics": [
            "0x8c5be1e5ebec7d5bd14f71427d1e84f3dd0314c0f7b2291e5b200ac8c7c3b925",
            "0x00000000000000000000000089ad215ef488e254b804162c83d6bc7de0e1519c",
            "0x000000000000000000000000db5492265f6038831e89f495670ff909ade94bd9"
          ],
          "data": "0x00000000000000000000000000000000000000000000000000000000000f4240",
          "blockHash": "0x11392dc273d7afe87fdd3bf218309579a5677351c273c0310d6c71f9d9ccc6ee",
          "blockNumber": "0x68a4f3",
          "transactionHash": "0x6dc5769e90b15ee5e93013a248424691fecd7f3bb163d95588053227f6f71201",
          "transactionIndex": "0x65",
          "logIndex": "0x9a",
          "removed": false
        },
        {
          "address": "0x1c7d4b196cb0c7b01d743fbc6116a902379c7238",
          "topics": [
            "0xddf252ad1be2c89b69c2b068fc378daa952ba7f163c4a11628f55a4df523b3ef",
            "0x00000000000000000000000089ad215ef488e254b804162c83d6bc7de0e1519c",
            "0x000000000000000000000000db5492265f6038831e89f495670ff909ade94bd9"
          ],
          "data": "0x00000000000000000000000000000000000000000000000000000000000f4240",
          "blockHash": "0x11392dc273d7afe87fdd3bf218309579a5677351c273c0310d6c71f9d9ccc6ee",
          "blockNumber": "0x68a4f3",
          "transactionHash": "0x6dc5769e90b15ee5e93013a248424691fecd7f3bb163d95588053227f6f71201",
          "transactionIndex": "0x65",
          "logIndex": "0x9b",
          "removed": false
        },
        {
          "address": "0x4a8bc80ed5a4067f1ccf107057b8270e0cc11a78",
          "topics": [
            "0x6eb224fb001ed210e379b335e35efe88672a8ce935d981a6896b27ffdf52a3b2",
            "0x000000000000000000000000db5492265f6038831e89f495670ff909ade94bd9"
          ],
          "data": "0x0000000000000000000000000000000000000000000000000000000000000e1e00000000000000000000000000000000000000000000000000000000000000000000000000000000000000000000000000000000000000000000000000000080000000000000000000000000000000000000000000000000000000000000000100000000000000000000000000000000000000000000000000000000000000850300000000000000000000000000000000000000000000000000000000000f42400000000000000000000000001c7d4b196cb0c7b01d743fbc6116a902379c72382712000000000000000000000000c6ab09b398bdae7b8a473fad24f4773d4f8aa47a271400000000000000000000000089ad215ef488e254b804162c83d6bc7de0e1519c000000000000000000000000000000000000000000000000000000",
          "blockHash": "0x11392dc273d7afe87fdd3bf218309579a5677351c273c0310d6c71f9d9ccc6ee",
          "blockNumber": "0x68a4f3",
          "transactionHash": "0x6dc5769e90b15ee5e93013a248424691fecd7f3bb163d95588053227f6f71201",
          "transactionIndex": "0x65",
          "logIndex": "0x9c",
          "removed": false
        },
        {
          "address": "0x4a8bc80ed5a4067f1ccf107057b8270e0cc11a78",
          "topics": [
            "0x6eb224fb001ed210e379b335e35efe88672a8ce935d981a6896b27ffdf52a3b2",
            "0x0000000000000000000000007b1bd7a6b4e61c2a123ac6bc2cbfc614437d0470"
          ],
          "data": "0x0000000000000000000000000000000000000000000000000000000000009bda00000000000000000000000000000000000000000000000000000000000000000000000000000000000000000000000000000000000000000000000000000080000000000000000000000000000000000000000000000000000000000000000f0000000000000000000000000000000000000000000000000000000000000199012714000000000000000000000000c6ab09b398bdae7b8a473fad24f4773d4f8aa47a0000002000000000000000000000000012b2434a1022d5787bf06056f2885fe35de62bf800000000000000000000000000000000000000000000000000000000000000000000000000000000000000000000000000000000000000000000000000000000000000600000000000000000000000000000000000000000000000000000000000000000000000000000000000000000000000000000000000000000000000000003d0900000000000000000000000000000000000000000000000000000000000a0a839271400000000000000000000000000000000000000000000000000000000000000000000000000000000000000007a0a53847776f7e94cc35742971acb2217b0db810000000000000000000000007a0a53847776f7e94cc35742971acb2217b0db8100000000000000000000000089ad215ef488e254b804162c83d6bc7de0e1519c01012712000000000000000000000000db5492265f6038831e89f495670ff909ade94bd90000000000000e1e00000000000000",
          "blockHash": "0x11392dc273d7afe87fdd3bf218309579a5677351c273c0310d6c71f9d9ccc6ee",
          "blockNumber": "0x68a4f3",
          "transactionHash": "0x6dc5769e90b15ee5e93013a248424691fecd7f3bb163d95588053227f6f71201",
          "transactionIndex": "0x65",
          "logIndex": "0x9d",
          "removed": false
        },
        {
          "address": "0x7b1bd7a6b4e61c2a123ac6bc2cbfc614437d0470",
          "topics": [
            "0xda8540426b64ece7b164a9dce95448765f0a7263ef3ff85091c9c7361e485364",
            "0x0000000000000000000000000000000000000000000000000000000000009bda"
          ],
          "data": "0x000000000000000000000000000000000000000000000000000004f977e5a3820000000000000000000000000000000000000000000000000000000000000000",
          "blockHash": "0x11392dc273d7afe87fdd3bf218309579a5677351c273c0310d6c71f9d9ccc6ee",
          "blockNumber": "0x68a4f3",
          "transactionHash": "0x6dc5769e90b15ee5e93013a248424691fecd7f3bb163d95588053227f6f71201",
          "transactionIndex": "0x65",
          "logIndex": "0x9e",
          "removed": false
        }
      ],
      "logsBloom": "0x00000000000100040000000000000010000000000000000000000000000200010010000000000000000000000000000000000000800040000000008000200000000000000000800000000008200080000000000000000000000000000100000000000000000000000000000000000000000040000000000000000010000000000080000000100000000000000100000080000000000000000000108000000010020000000400000000000000800000000000000400000000000000000000000000000002000000000000000000000000100000000000000004000000002000000410000000000000000010020000000000000000000000000000000000000000",
      "type": "0x2",
      "transactionHash": "0x6dc5769e90b15ee5e93013a248424691fecd7f3bb163d95588053227f6f71201",
      "transactionIndex": "0x65",
      "blockHash": "0x11392dc273d7afe87fdd3bf218309579a5677351c273c0310d6c71f9d9ccc6ee",
      "blockNumber": "0x68a4f3",
      "gasUsed": "0x3f59f",
      "effectiveGasPrice": "0x8875c702",
      "from": "0x12b2434a1022d5787bf06056f2885fe35de62bf8",
      "to": "0x89ad215ef488e254b804162c83d6bc7de0e1519c",
      "contractAddress": null
    }
  ],
  "libraries": [],
  "pending": [],
  "returns": {},
  "timestamp": 1728674298,
  "chain": 11155111,
  "commit": "58e35ff"
}