{
  "transactions": [
    {
      "hash": "0xc389cf7dab63f806d9ce331fee943e30c3f5c4e8c1cc5c4b50d5fcbecbb57dfd",
      "transactionType": "CALL",
      "contractName": null,
      "contractAddress": "0x1c7d4b196cb0c7b01d743fbc6116a902379c7238",
      "function": "approve(address,uint256)",
      "arguments": [
        "0x497047952A7F275B48D097cB0e8b7Ad843100a2A",
        "3000000"
      ],
      "transaction": {
        "from": "0x12b2434a1022d5787bf06056f2885fe35de62bf8",
        "to": "0x1c7d4b196cb0c7b01d743fbc6116a902379c7238",
        "gas": "0x12b1b",
        "value": "0x0",
        "input": "0x095ea7b3000000000000000000000000497047952a7f275b48d097cb0e8b7ad843100a2a00000000000000000000000000000000000000000000000000000000002dc6c0",
        "nonce": "0x4c",
        "chainId": "0xaa36a7"
      },
      "additionalContracts": [],
      "isFixedGasLimit": false
    },
    {
      "hash": "0x16f6b484fcf66b11975219f7f3209e28070ff0f6d29e2ee8a28fe27eacdc8f3d",
      "transactionType": "CALL",
      "contractName": null,
      "contractAddress": "0x497047952a7f275b48d097cb0e8b7ad843100a2a",
      "function": "sendCrossChainDeposit(uint16,address,address,uint256,address)",
      "arguments": [
        "10003",
        "0x847a6c5a32F5Ed69c43a82f46a84Df75f9B9Bd2A",
        "0x12B2434a1022d5787bf06056F2885Fe35De62Bf8",
        "3000000",
        "0x1c7D4B196Cb0C7B01d743Fbc6116a902379C7238"
      ],
      "transaction": {
        "from": "0x12b2434a1022d5787bf06056f2885fe35de62bf8",
        "to": "0x497047952a7f275b48d097cb0e8b7ad843100a2a",
        "gas": "0x5780f",
        "value": "0x1a1417be1000",
        "input": "0x8d3ea4890000000000000000000000000000000000000000000000000000000000002713000000000000000000000000847a6c5a32f5ed69c43a82f46a84df75f9b9bd2a00000000000000000000000012b2434a1022d5787bf06056f2885fe35de62bf800000000000000000000000000000000000000000000000000000000002dc6c00000000000000000000000001c7d4b196cb0c7b01d743fbc6116a902379c7238",
        "nonce": "0x4d",
        "chainId": "0xaa36a7"
      },
      "additionalContracts": [],
      "isFixedGasLimit": false
    }
  ],
  "receipts": [
    {
      "status": "0x1",
      "cumulativeGasUsed": "0x110b048",
      "logs": [
        {
          "address": "0x1c7d4b196cb0c7b01d743fbc6116a902379c7238",
          "topics": [
            "0x8c5be1e5ebec7d5bd14f71427d1e84f3dd0314c0f7b2291e5b200ac8c7c3b925",
            "0x00000000000000000000000012b2434a1022d5787bf06056f2885fe35de62bf8",
            "0x000000000000000000000000497047952a7f275b48d097cb0e8b7ad843100a2a"
          ],
          "data": "0x00000000000000000000000000000000000000000000000000000000002dc6c0",
          "blockHash": "0x099d2081c83b13fcab044801d448fb46a81676380b590a89eff620e8eb2db94b",
          "blockNumber": "0x68b664",
          "transactionHash": "0xc389cf7dab63f806d9ce331fee943e30c3f5c4e8c1cc5c4b50d5fcbecbb57dfd",
          "transactionIndex": "0x6d",
          "logIndex": "0xeb",
          "removed": false
        }
      ],
      "logsBloom": "0x00000000000000000000000000000000000000000000000000000000000200000000000000000000000000000000000000400000000000000000000000200000000000000000000000000000200000000000000000000000000000000000000000000000000000000000000000000000000000000000000000000000000000000000000000100000000000000000000000000000000000000000000000000010020000000000000000000000000000000000000400000000000000000000000000000000000000000000000000000200000000000000000000000000000000000010000000000000000010000000000000000000000000000000000000000200",
      "type": "0x2",
      "transactionHash": "0xc389cf7dab63f806d9ce331fee943e30c3f5c4e8c1cc5c4b50d5fcbecbb57dfd",
      "transactionIndex": "0x6d",
      "blockHash": "0x099d2081c83b13fcab044801d448fb46a81676380b590a89eff620e8eb2db94b",
      "blockNumber": "0x68b664",
      "gasUsed": "0xd88d",
      "effectiveGasPrice": "0x9c659e7d1",
      "from": "0x12b2434a1022d5787bf06056f2885fe35de62bf8",
      "to": "0x1c7d4b196cb0c7b01d743fbc6116a902379c7238",
      "contractAddress": null
    },
    {
      "status": "0x1",
      "cumulativeGasUsed": "0x114a5e7",
      "logs": [
        {
          "address": "0x1c7d4b196cb0c7b01d743fbc6116a902379c7238",
          "topics": [
            "0xddf252ad1be2c89b69c2b068fc378daa952ba7f163c4a11628f55a4df523b3ef",
            "0x00000000000000000000000012b2434a1022d5787bf06056f2885fe35de62bf8",
            "0x000000000000000000000000497047952a7f275b48d097cb0e8b7ad843100a2a"
          ],
          "data": "0x00000000000000000000000000000000000000000000000000000000002dc6c0",
          "blockHash": "0x099d2081c83b13fcab044801d448fb46a81676380b590a89eff620e8eb2db94b",
          "blockNumber": "0x68b664",
          "transactionHash": "0x16f6b484fcf66b11975219f7f3209e28070ff0f6d29e2ee8a28fe27eacdc8f3d",
          "transactionIndex": "0x6e",
          "logIndex": "0xec",
          "removed": false
        },
        {
          "address": "0x1c7d4b196cb0c7b01d743fbc6116a902379c7238",
          "topics": [
            "0x8c5be1e5ebec7d5bd14f71427d1e84f3dd0314c0f7b2291e5b200ac8c7c3b925",
            "0x000000000000000000000000497047952a7f275b48d097cb0e8b7ad843100a2a",
            "0x000000000000000000000000db5492265f6038831e89f495670ff909ade94bd9"
          ],
          "data": "0x00000000000000000000000000000000000000000000000000000000002dc6c0",
          "blockHash": "0x099d2081c83b13fcab044801d448fb46a81676380b590a89eff620e8eb2db94b",
          "blockNumber": "0x68b664",
          "transactionHash": "0x16f6b484fcf66b11975219f7f3209e28070ff0f6d29e2ee8a28fe27eacdc8f3d",
          "transactionIndex": "0x6e",
          "logIndex": "0xed",
          "removed": false
        },
        {
          "address": "0x1c7d4b196cb0c7b01d743fbc6116a902379c7238",
          "topics": [
            "0xddf252ad1be2c89b69c2b068fc378daa952ba7f163c4a11628f55a4df523b3ef",
            "0x000000000000000000000000497047952a7f275b48d097cb0e8b7ad843100a2a",
            "0x000000000000000000000000db5492265f6038831e89f495670ff909ade94bd9"
          ],
          "data": "0x00000000000000000000000000000000000000000000000000000000002dc6c0",
          "blockHash": "0x099d2081c83b13fcab044801d448fb46a81676380b590a89eff620e8eb2db94b",
          "blockNumber": "0x68b664",
          "transactionHash": "0x16f6b484fcf66b11975219f7f3209e28070ff0f6d29e2ee8a28fe27eacdc8f3d",
          "transactionIndex": "0x6e",
          "logIndex": "0xee",
          "removed": false
        },
        {
          "address": "0x4a8bc80ed5a4067f1ccf107057b8270e0cc11a78",
          "topics": [
            "0x6eb224fb001ed210e379b335e35efe88672a8ce935d981a6896b27ffdf52a3b2",
            "0x000000000000000000000000db5492265f6038831e89f495670ff909ade94bd9"
          ],
          "data": "0x0000000000000000000000000000000000000000000000000000000000000e2300000000000000000000000000000000000000000000000000000000000000000000000000000000000000000000000000000000000000000000000000000080000000000000000000000000000000000000000000000000000000000000000100000000000000000000000000000000000000000000000000000000000000850300000000000000000000000000000000000000000000000000000000002dc6c00000000000000000000000001c7d4b196cb0c7b01d743fbc6116a902379c72382712000000000000000000000000847a6c5a32f5ed69c43a82f46a84df75f9b9bd2a2713000000000000000000000000497047952a7f275b48d097cb0e8b7ad843100a2a000000000000000000000000000000000000000000000000000000",
          "blockHash": "0x099d2081c83b13fcab044801d448fb46a81676380b590a89eff620e8eb2db94b",
          "blockNumber": "0x68b664",
          "transactionHash": "0x16f6b484fcf66b11975219f7f3209e28070ff0f6d29e2ee8a28fe27eacdc8f3d",
          "transactionIndex": "0x6e",
          "logIndex": "0xef",
          "removed": false
        },
        {
          "address": "0x4a8bc80ed5a4067f1ccf107057b8270e0cc11a78",
          "topics": [
            "0x6eb224fb001ed210e379b335e35efe88672a8ce935d981a6896b27ffdf52a3b2",
            "0x0000000000000000000000007b1bd7a6b4e61c2a123ac6bc2cbfc614437d0470"
          ],
          "data": "0x0000000000000000000000000000000000000000000000000000000000009c2a00000000000000000000000000000000000000000000000000000000000000000000000000000000000000000000000000000000000000000000000000000080000000000000000000000000000000000000000000000000000000000000000f0000000000000000000000000000000000000000000000000000000000000199012713000000000000000000000000847a6c5a32f5ed69c43a82f46a84df75f9b9bd2a0000002000000000000000000000000012b2434a1022d5787bf06056f2885fe35de62bf800000000000000000000000000000000000000000000000000000000000000000000000000000000000000000000000000000000000000000000000000000000000000600000000000000000000000000000000000000000000000000000000000000000000000000000000000000000000000000000000000000000000000000003d0900000000000000000000000000000000000000000000000000000000005ad37cf271300000000000000000000000000000000000000000000000000000000000000000000000000000000000000007a0a53847776f7e94cc35742971acb2217b0db810000000000000000000000007a0a53847776f7e94cc35742971acb2217b0db81000000000000000000000000497047952a7f275b48d097cb0e8b7ad843100a2a01012712000000000000000000000000db5492265f6038831e89f495670ff909ade94bd90000000000000e2300000000000000",
          "blockHash": "0x099d2081c83b13fcab044801d448fb46a81676380b590a89eff620e8eb2db94b",
          "blockNumber": "0x68b664",
          "transactionHash": "0x16f6b484fcf66b11975219f7f3209e28070ff0f6d29e2ee8a28fe27eacdc8f3d",
          "transactionIndex": "0x6e",
          "logIndex": "0xf0",
          "removed": false
        },
        {
          "address": "0x7b1bd7a6b4e61c2a123ac6bc2cbfc614437d0470",
          "topics": [
            "0xda8540426b64ece7b164a9dce95448765f0a7263ef3ff85091c9c7361e485364",
            "0x0000000000000000000000000000000000000000000000000000000000009c2a"
          ],
          "data": "0x00000000000000000000000000000000000000000000000000001a1417be10000000000000000000000000000000000000000000000000000000000000000000",
          "blockHash": "0x099d2081c83b13fcab044801d448fb46a81676380b590a89eff620e8eb2db94b",
          "blockNumber": "0x68b664",
          "transactionHash": "0x16f6b484fcf66b11975219f7f3209e28070ff0f6d29e2ee8a28fe27eacdc8f3d",
          "transactionIndex": "0x6e",
          "logIndex": "0xf1",
          "removed": false
        }
      ],
      "logsBloom": "0x00000000000100140000000000000010000004000000000000000000000200010010000000000002000000000000000000400000800040000000008000200000000000000000000000000008200080000000000000000000000000000100000000000000000000000000000000000000000040000000000000000010000000000080000000100000000000000100000000000000000000000000108000000010020000000400000000000000000000000000000400000000000000000000000000000002000000000000000000000200000000000000000000000000000000000410000000000000000010020000000000000000000000000000000000000200",
      "type": "0x2",
      "transactionHash": "0x16f6b484fcf66b11975219f7f3209e28070ff0f6d29e2ee8a28fe27eacdc8f3d",
      "transactionIndex": "0x6e",
      "blockHash": "0x099d2081c83b13fcab044801d448fb46a81676380b590a89eff620e8eb2db94b",
      "blockNumber": "0x68b664",
      "gasUsed": "0x3f59f",
      "effectiveGasPrice": "0x9c659e7d1",
      "from": "0x12b2434a1022d5787bf06056f2885fe35de62bf8",
      "to": "0x497047952a7f275b48d097cb0e8b7ad843100a2a",
      "contractAddress": null
    }
  ],
  "libraries": [],
  "pending": [],
  "returns": {},
  "timestamp": 1728738073,
  "chain": 11155111,
  "commit": "cfe243b"
}