{
  "transactions": [
    {
      "hash": "0x4764b009aff58f1eeb6d04c569ce4c25bfbc90831596f02faa0903a5135772f4",
      "transactionType": "CALL",
      "contractName": null,
      "contractAddress": "0x1c7d4b196cb0c7b01d743fbc6116a902379c7238",
      "function": "approve(address,uint256)",
      "arguments": [
        "0x497047952A7F275B48D097cB0e8b7Ad843100a2A",
        "1000000"
      ],
      "transaction": {
        "from": "0x12b2434a1022d5787bf06056f2885fe35de62bf8",
        "to": "0x1c7d4b196cb0c7b01d743fbc6116a902379c7238",
        "gas": "0x12b1b",
        "value": "0x0",
        "input": "0x095ea7b3000000000000000000000000497047952a7f275b48d097cb0e8b7ad843100a2a00000000000000000000000000000000000000000000000000000000000f4240",
        "nonce": "0x50",
        "chainId": "0xaa36a7"
      },
      "additionalContracts": [],
      "isFixedGasLimit": false
    },
    {
      "hash": "0xcb86a2cb487cee7315c2fd18b991511c1a09c651a2fbe89744891346b58a7be7",
      "transactionType": "CALL",
      "contractName": null,
      "contractAddress": "0x497047952a7f275b48d097cb0e8b7ad843100a2a",
      "function": "sendCrossChainDeposit(uint16,address,address,uint256,address)",
      "arguments": [
        "10004",
        "0xe3F3Fb3a7a5B046298817f0AB073a659f68cbdB3",
        "0x12B2434a1022d5787bf06056F2885Fe35De62Bf8",
        "1000000",
        "0x1c7D4B196Cb0C7B01d743Fbc6116a902379C7238"
      ],
      "transaction": {
        "from": "0x12b2434a1022d5787bf06056f2885fe35de62bf8",
        "to": "0x497047952a7f275b48d097cb0e8b7ad843100a2a",
        "gas": "0x5780f",
        "value": "0x4f977e5a382",
        "input": "0x8d3ea4890000000000000000000000000000000000000000000000000000000000002714000000000000000000000000e3f3fb3a7a5b046298817f0ab073a659f68cbdb300000000000000000000000012b2434a1022d5787bf06056f2885fe35de62bf800000000000000000000000000000000000000000000000000000000000f42400000000000000000000000001c7d4b196cb0c7b01d743fbc6116a902379c7238",
        "nonce": "0x51",
        "chainId": "0xaa36a7"
      },
      "additionalContracts": [],
      "isFixedGasLimit": false
    }
  ],
  "receipts": [
    {
      "status": "0x1",
      "cumulativeGasUsed": "0x131ca04",
      "logs": [
        {
          "address": "0x1c7d4b196cb0c7b01d743fbc6116a902379c7238",
          "topics": [
            "0x8c5be1e5ebec7d5bd14f71427d1e84f3dd0314c0f7b2291e5b200ac8c7c3b925",
            "0x00000000000000000000000012b2434a1022d5787bf06056f2885fe35de62bf8",
            "0x000000000000000000000000497047952a7f275b48d097cb0e8b7ad843100a2a"
          ],
          "data": "0x00000000000000000000000000000000000000000000000000000000000f4240",
          "blockHash": "0x98ebc3a674b536e1892fba0b25201823d27e53c263077fd71217920f02b116b8",
          "blockNumber": "0x68b6c2",
          "transactionHash": "0x4764b009aff58f1eeb6d04c569ce4c25bfbc90831596f02faa0903a5135772f4",
          "transactionIndex": "0x6b",
          "logIndex": "0xbb",
          "removed": false
        }
      ],
      "logsBloom": "0x00000000000000000000000000000000000000000000000000000000000200000000000000000000000000000000000000400000000000000000000000200000000000000000000000000000200000000000000000000000000000000000000000000000000000000000000000000000000000000000000000000000000000000000000000100000000000000000000000000000000000000000000000000010020000000000000000000000000000000000000400000000000000000000000000000000000000000000000000000200000000000000000000000000000000000010000000000000000010000000000000000000000000000000000000000200",
      "type": "0x2",
      "transactionHash": "0x4764b009aff58f1eeb6d04c569ce4c25bfbc90831596f02faa0903a5135772f4",
      "transactionIndex": "0x6b",
      "blockHash": "0x98ebc3a674b536e1892fba0b25201823d27e53c263077fd71217920f02b116b8",
      "blockNumber": "0x68b6c2",
      "gasUsed": "0xd88d",
      "effectiveGasPrice": "0x7006549ba",
      "from": "0x12b2434a1022d5787bf06056f2885fe35de62bf8",
      "to": "0x1c7d4b196cb0c7b01d743fbc6116a902379c7238",
      "contractAddress": null
    },
    {
      "status": "0x1",
      "cumulativeGasUsed": "0x146a3c3",
      "logs": [
        {
          "address": "0x1c7d4b196cb0c7b01d743fbc6116a902379c7238",
          "topics": [
            "0xddf252ad1be2c89b69c2b068fc378daa952ba7f163c4a11628f55a4df523b3ef",
            "0x00000000000000000000000012b2434a1022d5787bf06056f2885fe35de62bf8",
            "0x000000000000000000000000497047952a7f275b48d097cb0e8b7ad843100a2a"
          ],
          "data": "0x00000000000000000000000000000000000000000000000000000000000f4240",
          "blockHash": "0x98ebc3a674b536e1892fba0b25201823d27e53c263077fd71217920f02b116b8",
          "blockNumber": "0x68b6c2",
          "transactionHash": "0xcb86a2cb487cee7315c2fd18b991511c1a09c651a2fbe89744891346b58a7be7",
          "transactionIndex": "0x6d",
          "logIndex": "0xc1",
          "removed": false
        },
        {
          "address": "0x1c7d4b196cb0c7b01d743fbc6116a902379c7238",
          "topics": [
            "0x8c5be1e5ebec7d5bd14f71427d1e84f3dd0314c0f7b2291e5b200ac8c7c3b925",
            "0x000000000000000000000000497047952a7f275b48d097cb0e8b7ad843100a2a",
            "0x000000000000000000000000db5492265f6038831e89f495670ff909ade94bd9"
          ],
          "data": "0x00000000000000000000000000000000000000000000000000000000000f4240",
          "blockHash": "0x98ebc3a674b536e1892fba0b25201823d27e53c263077fd71217920f02b116b8",
          "blockNumber": "0x68b6c2",
          "transactionHash": "0xcb86a2cb487cee7315c2fd18b991511c1a09c651a2fbe89744891346b58a7be7",
          "transactionIndex": "0x6d",
          "logIndex": "0xc2",
          "removed": false
        },
        {
          "address": "0x1c7d4b196cb0c7b01d743fbc6116a902379c7238",
          "topics": [
            "0xddf252ad1be2c89b69c2b068fc378daa952ba7f163c4a11628f55a4df523b3ef",
            "0x000000000000000000000000497047952a7f275b48d097cb0e8b7ad843100a2a",
            "0x000000000000000000000000db5492265f6038831e89f495670ff909ade94bd9"
          ],
          "data": "0x00000000000000000000000000000000000000000000000000000000000f4240",
          "blockHash": "0x98ebc3a674b536e1892fba0b25201823d27e53c263077fd71217920f02b116b8",
          "blockNumber": "0x68b6c2",
          "transactionHash": "0xcb86a2cb487cee7315c2fd18b991511c1a09c651a2fbe89744891346b58a7be7",
          "transactionIndex": "0x6d",
          "logIndex": "0xc3",
          "removed": false
        },
        {
          "address": "0x4a8bc80ed5a4067f1ccf107057b8270e0cc11a78",
          "topics": [
            "0x6eb224fb001ed210e379b335e35efe88672a8ce935d981a6896b27ffdf52a3b2",
            "0x000000000000000000000000db5492265f6038831e89f495670ff909ade94bd9"
          ],
          "data": "0x0000000000000000000000000000000000000000000000000000000000000e2500000000000000000000000000000000000000000000000000000000000000000000000000000000000000000000000000000000000000000000000000000080000000000000000000000000000000000000000000000000000000000000000100000000000000000000000000000000000000000000000000000000000000850300000000000000000000000000000000000000000000000000000000000f42400000000000000000000000001c7d4b196cb0c7b01d743fbc6116a902379c72382712000000000000000000000000e3f3fb3a7a5b046298817f0ab073a659f68cbdb32714000000000000000000000000497047952a7f275b48d097cb0e8b7ad843100a2a000000000000000000000000000000000000000000000000000000",
          "blockHash": "0x98ebc3a674b536e1892fba0b25201823d27e53c263077fd71217920f02b116b8",
          "blockNumber": "0x68b6c2",
          "transactionHash": "0xcb86a2cb487cee7315c2fd18b991511c1a09c651a2fbe89744891346b58a7be7",
          "transactionIndex": "0x6d",
          "logIndex": "0xc4",
          "removed": false
        },
        {
          "address": "0x4a8bc80ed5a4067f1ccf107057b8270e0cc11a78",
          "topics": [
            "0x6eb224fb001ed210e379b335e35efe88672a8ce935d981a6896b27ffdf52a3b2",
            "0x0000000000000000000000007b1bd7a6b4e61c2a123ac6bc2cbfc614437d0470"
          ],
          "data": "0x0000000000000000000000000000000000000000000000000000000000009c2d00000000000000000000000000000000000000000000000000000000000000000000000000000000000000000000000000000000000000000000000000000080000000000000000000000000000000000000000000000000000000000000000f0000000000000000000000000000000000000000000000000000000000000199012714000000000000000000000000e3f3fb3a7a5b046298817f0ab073a659f68cbdb30000002000000000000000000000000012b2434a1022d5787bf06056f2885fe35de62bf800000000000000000000000000000000000000000000000000000000000000000000000000000000000000000000000000000000000000000000000000000000000000600000000000000000000000000000000000000000000000000000000000000000000000000000000000000000000000000000000000000000000000000003d0900000000000000000000000000000000000000000000000000000000000a0a839271400000000000000000000000000000000000000000000000000000000000000000000000000000000000000007a0a53847776f7e94cc35742971acb2217b0db810000000000000000000000007a0a53847776f7e94cc35742971acb2217b0db81000000000000000000000000497047952a7f275b48d097cb0e8b7ad843100a2a01012712000000000000000000000000db5492265f6038831e89f495670ff909ade94bd90000000000000e2500000000000000",
          "blockHash": "0x98ebc3a674b536e1892fba0b25201823d27e53c263077fd71217920f02b116b8",
          "blockNumber": "0x68b6c2",
          "transactionHash": "0xcb86a2cb487cee7315c2fd18b991511c1a09c651a2fbe89744891346b58a7be7",
          "transactionIndex": "0x6d",
          "logIndex": "0xc5",
          "removed": false
        },
        {
          "address": "0x7b1bd7a6b4e61c2a123ac6bc2cbfc614437d0470",
          "topics": [
            "0xda8540426b64ece7b164a9dce95448765f0a7263ef3ff85091c9c7361e485364",
            "0x0000000000000000000000000000000000000000000000000000000000009c2d"
          ],
          "data": "0x000000000000000000000000000000000000000000000000000004f977e5a3820000000000000000000000000000000000000000000000000000000000000000",
          "blockHash": "0x98ebc3a674b536e1892fba0b25201823d27e53c263077fd71217920f02b116b8",
          "blockNumber": "0x68b6c2",
          "transactionHash": "0xcb86a2cb487cee7315c2fd18b991511c1a09c651a2fbe89744891346b58a7be7",
          "transactionIndex": "0x6d",
          "logIndex": "0xc6",
          "removed": false
        }
      ],
      "logsBloom": "0x00000000000100040000000000000010000000000000000000000000000200010010000000000000000000000000000000400000800040000000008000200000000000000000000000000008200080000000000000000000000000000100000000000000000000000000000000000000000040000000000000000010000000000080000000180000000000000100000000000000000000000000108000000010020000000400000000000000000000000000000400000000000000000000000000000002000000000000000000000200000000000000000000000000000000000410000000000000001010020000000000000000000000001000000000000200",
      "type": "0x2",
      "transactionHash": "0xcb86a2cb487cee7315c2fd18b991511c1a09c651a2fbe89744891346b58a7be7",
      "transactionIndex": "0x6d",
      "blockHash": "0x98ebc3a674b536e1892fba0b25201823d27e53c263077fd71217920f02b116b8",
      "blockNumber": "0x68b6c2",
      "gasUsed": "0x3f59f",
      "effectiveGasPrice": "0x7006549ba",
      "from": "0x12b2434a1022d5787bf06056f2885fe35de62bf8",
      "to": "0x497047952a7f275b48d097cb0e8b7ad843100a2a",
      "contractAddress": null
    }
  ],
  "libraries": [],
  "pending": [],
  "returns": {},
  "timestamp": 1728739446,
  "chain": 11155111,
  "commit": "cfe243b"
}