{
  "transactions": [
    {
      "hash": "0xfbaf8a5d9c4d0ebbab5153deed46f4ae0266597883c2450d90f5a61066487714",
      "transactionType": "CALL",
      "contractName": null,
      "contractAddress": "0xbfb1454e669e0e0de3e78bf07da131f36d276516",
      "function": "setRegisteredSender(uint16,bytes32)",
      "arguments": [
        "10004",
        "0x000000000000000000000000c5a85312f910476a0cd6afbda85e3017c016803b"
      ],
      "transaction": {
        "from": "0x12b2434a1022d5787bf06056f2885fe35de62bf8",
        "to": "0xbfb1454e669e0e0de3e78bf07da131f36d276516",
        "gas": "0xf97a",
        "value": "0x0",
        "input": "0xdd12d68b0000000000000000000000000000000000000000000000000000000000002714000000000000000000000000c5a85312f910476a0cd6afbda85e3017c016803b",
        "nonce": "0x140",
        "chainId": "0x14a34"
      },
      "additionalContracts": [],
      "isFixedGasLimit": false
    },
    {
      "hash": "0x64ca8861a7679a4b4e44df26efdcbefb66cf888ebc56a26aae2f928d08e6a8ea",
      "transactionType": "CALL",
      "contractName": null,
      "contractAddress": "0x036cbd53842c5426634e7929541ec2318f3dcf7e",
      "function": "approve(address,uint256)",
      "arguments": [
        "0xbFB1454E669e0E0dE3E78Bf07dA131f36D276516",
        "2000000"
      ],
      "transaction": {
        "from": "0x12b2434a1022d5787bf06056f2885fe35de62bf8",
        "to": "0x036cbd53842c5426634e7929541ec2318f3dcf7e",
        "gas": "0x12b1b",
        "value": "0x0",
        "input": "0x095ea7b3000000000000000000000000bfb1454e669e0e0de3e78bf07da131f36d27651600000000000000000000000000000000000000000000000000000000001e8480",
        "nonce": "0x141",
        "chainId": "0x14a34"
      },
      "additionalContracts": [],
      "isFixedGasLimit": false
    },
    {
      "hash": "0x536e804ae180e54f95d34c887ca9faa5db1754841bbce4fdd69a9b32b070610a",
      "transactionType": "CALL",
      "contractName": null,
      "contractAddress": "0xbfb1454e669e0e0de3e78bf07da131f36d276516",
      "function": "sendCrossChainDeposit(uint16,address,address,uint256)",
      "arguments": [
        "10005",
        "0x5fd84259d66Cd46123540766Be93DFE6D43130D7",
        "0x6680dfD1c6A4867476b2e60dA89354AC93272878",
        "2000000"
      ],
      "transaction": {
        "from": "0x12b2434a1022d5787bf06056f2885fe35de62bf8",
        "to": "0xbfb1454e669e0e0de3e78bf07da131f36d276516",
        "gas": "0x61d10",
        "value": "0x354a6ba7a18000",
        "input": "0x9a1fb6b600000000000000000000000000000000000000000000000000000000000027150000000000000000000000005fd84259d66cd46123540766be93dfe6d43130d70000000000000000000000006680dfd1c6a4867476b2e60da89354ac9327287800000000000000000000000000000000000000000000000000000000001e8480",
        "nonce": "0x142",
        "chainId": "0x14a34"
      },
      "additionalContracts": [],
      "isFixedGasLimit": false
    }
  ],
  "receipts": [
    {
      "status": "0x1",
      "cumulativeGasUsed": "0x2e74fe",
      "logs": [],
      "logsBloom": "0x00000000000000000000000000000000000000000000000000000000000000000000000000000000000000000000000000000000000000000000000000000000000000000000000000000000000000000000000000000000000000000000000000000000000000000000000000000000000000000000000000000000000000000000000000000000000000000000000000000000000000000000000000000000000000000000000000000000000000000000000000000000000000000000000000000000000000000000000000000000000000000000000000000000000000000000000000000000000000000000000000000000000000000000000000000000",
      "type": "0x2",
      "transactionHash": "0xfbaf8a5d9c4d0ebbab5153deed46f4ae0266597883c2450d90f5a61066487714",
      "transactionIndex": "0xf",
      "blockHash": "0x6aee677dd50dea664d82bf69ddb43076424e0755eb3b6a431671a67f2ad157b1",
      "blockNumber": "0xfae6ae",
      "gasUsed": "0xb49f",
      "effectiveGasPrice": "0x115f7600",
      "from": "0x12b2434a1022d5787bf06056f2885fe35de62bf8",
      "to": "0xbfb1454e669e0e0de3e78bf07da131f36d276516",
      "contractAddress": null,
      "l1BaseFeeScalar": "0x44d",
      "l1BlobBaseFee": "0x1",
      "l1BlobBaseFeeScalar": "0xa118b",
      "l1Fee": "0x6e66ada6b",
      "l1GasPrice": "0x3eabc1336",
      "l1GasUsed": "0x640"
    },
    {
      "status": "0x1",
      "cumulativeGasUsed": "0x2f4d8b",
      "logs": [
        {
          "address": "0x036cbd53842c5426634e7929541ec2318f3dcf7e",
          "topics": [
            "0x8c5be1e5ebec7d5bd14f71427d1e84f3dd0314c0f7b2291e5b200ac8c7c3b925",
            "0x00000000000000000000000012b2434a1022d5787bf06056f2885fe35de62bf8",
            "0x000000000000000000000000bfb1454e669e0e0de3e78bf07da131f36d276516"
          ],
          "data": "0x00000000000000000000000000000000000000000000000000000000001e8480",
          "blockHash": "0x6aee677dd50dea664d82bf69ddb43076424e0755eb3b6a431671a67f2ad157b1",
          "blockNumber": "0xfae6ae",
          "transactionHash": "0x64ca8861a7679a4b4e44df26efdcbefb66cf888ebc56a26aae2f928d08e6a8ea",
          "transactionIndex": "0x10",
          "logIndex": "0x2d",
          "removed": false
        }
      ],
      "logsBloom": "0x00000000040000000000000000000000000000000000000000000000000000000000000000000000000000000000000000000000002000000000000000200000000000000000000000000000200000000000000000000000000000000000000800000000000000000000000000000000000000000000000000000000000000000000200000000000000000000000000000000000000000000000000000000010020000000000000000000000000000000000000400000000000000000000000000000000000000000000000000000000000000000000000000000000020000000010000000000000000000000020000000000000000000000000000000000000",
      "type": "0x2",
      "transactionHash": "0x64ca8861a7679a4b4e44df26efdcbefb66cf888ebc56a26aae2f928d08e6a8ea",
      "transactionIndex": "0x10",
      "blockHash": "0x6aee677dd50dea664d82bf69ddb43076424e0755eb3b6a431671a67f2ad157b1",
      "blockNumber": "0xfae6ae",
      "gasUsed": "0xd88d",
      "effectiveGasPrice": "0x115f7600",
      "from": "0x12b2434a1022d5787bf06056f2885fe35de62bf8",
      "to": "0x036cbd53842c5426634e7929541ec2318f3dcf7e",
      "contractAddress": null,
      "l1BaseFeeScalar": "0x44d",
      "l1BlobBaseFee": "0x1",
      "l1BlobBaseFeeScalar": "0xa118b",
      "l1Fee": "0x6e66ada6b",
      "l1GasPrice": "0x3eabc1336",
      "l1GasUsed": "0x640"
    },
    {
      "status": "0x1",
      "cumulativeGasUsed": "0x337bac",
      "logs": [
        {
          "address": "0x036cbd53842c5426634e7929541ec2318f3dcf7e",
          "topics": [
            "0xddf252ad1be2c89b69c2b068fc378daa952ba7f163c4a11628f55a4df523b3ef",
            "0x00000000000000000000000012b2434a1022d5787bf06056f2885fe35de62bf8",
            "0x000000000000000000000000bfb1454e669e0e0de3e78bf07da131f36d276516"
          ],
          "data": "0x00000000000000000000000000000000000000000000000000000000001e8480",
          "blockHash": "0x6aee677dd50dea664d82bf69ddb43076424e0755eb3b6a431671a67f2ad157b1",
          "blockNumber": "0xfae6ae",
          "transactionHash": "0x536e804ae180e54f95d34c887ca9faa5db1754841bbce4fdd69a9b32b070610a",
          "transactionIndex": "0x11",
          "logIndex": "0x2e",
          "removed": false
        },
        {
          "address": "0x036cbd53842c5426634e7929541ec2318f3dcf7e",
          "topics": [
            "0x8c5be1e5ebec7d5bd14f71427d1e84f3dd0314c0f7b2291e5b200ac8c7c3b925",
            "0x000000000000000000000000bfb1454e669e0e0de3e78bf07da131f36d276516",
            "0x0000000000000000000000009f3b8679c73c2fef8b59b4f3444d4e156fb70aa5"
          ],
          "data": "0x00000000000000000000000000000000000000000000000000000000001e8480",
          "blockHash": "0x6aee677dd50dea664d82bf69ddb43076424e0755eb3b6a431671a67f2ad157b1",
          "blockNumber": "0xfae6ae",
          "transactionHash": "0x536e804ae180e54f95d34c887ca9faa5db1754841bbce4fdd69a9b32b070610a",
          "transactionIndex": "0x11",
          "logIndex": "0x2f",
          "removed": false
        },
        {
          "address": "0x036cbd53842c5426634e7929541ec2318f3dcf7e",
          "topics": [
            "0xddf252ad1be2c89b69c2b068fc378daa952ba7f163c4a11628f55a4df523b3ef",
            "0x000000000000000000000000bfb1454e669e0e0de3e78bf07da131f36d276516",
            "0x000000000000000000000000e997d7d2f6e065a9a93fa2175e878fb9081f1f0a"
          ],
          "data": "0x00000000000000000000000000000000000000000000000000000000001e8480",
          "blockHash": "0x6aee677dd50dea664d82bf69ddb43076424e0755eb3b6a431671a67f2ad157b1",
          "blockNumber": "0xfae6ae",
          "transactionHash": "0x536e804ae180e54f95d34c887ca9faa5db1754841bbce4fdd69a9b32b070610a",
          "transactionIndex": "0x11",
          "logIndex": "0x30",
          "removed": false
        },
        {
          "address": "0x036cbd53842c5426634e7929541ec2318f3dcf7e",
          "topics": [
            "0xcc16f5dbb4873280815c1ee09dbd06736cffcc184412cf7a71a0fdb75d397ca5",
            "0x000000000000000000000000e997d7d2f6e065a9a93fa2175e878fb9081f1f0a"
          ],
          "data": "0x00000000000000000000000000000000000000000000000000000000001e8480",
          "blockHash": "0x6aee677dd50dea664d82bf69ddb43076424e0755eb3b6a431671a67f2ad157b1",
          "blockNumber": "0xfae6ae",
          "transactionHash": "0x536e804ae180e54f95d34c887ca9faa5db1754841bbce4fdd69a9b32b070610a",
          "transactionIndex": "0x11",
          "logIndex": "0x31",
          "removed": false
        },
        {
          "address": "0x036cbd53842c5426634e7929541ec2318f3dcf7e",
          "topics": [
            "0xddf252ad1be2c89b69c2b068fc378daa952ba7f163c4a11628f55a4df523b3ef",
            "0x000000000000000000000000e997d7d2f6e065a9a93fa2175e878fb9081f1f0a",
            "0x0000000000000000000000000000000000000000000000000000000000000000"
          ],
          "data": "0x00000000000000000000000000000000000000000000000000000000001e8480",
          "blockHash": "0x6aee677dd50dea664d82bf69ddb43076424e0755eb3b6a431671a67f2ad157b1",
          "blockNumber": "0xfae6ae",
          "transactionHash": "0x536e804ae180e54f95d34c887ca9faa5db1754841bbce4fdd69a9b32b070610a",
          "transactionIndex": "0x11",
          "logIndex": "0x32",
          "removed": false
        },
        {
          "address": "0x7865fafc2db2093669d92c0f33aeef291086befd",
          "topics": [
            "0x8c5261668696ce22758910d05bab8f186d6eb247ceac2af2e82c7dc17669b036"
          ],
          "data": "0x000000000000000000000000000000000000000000000000000000000000002000000000000000000000000000000000000000000000000000000000000000f80000000000000006000000000000000000000c0f0000000000000000000000009f3b8679c73c2fef8b59b4f3444d4e156fb70aa50000000000000000000000009f3b8679c73c2fef8b59b4f3444d4e156fb70aa50000000000000000000000005fd84259d66cd46123540766be93dfe6d43130d700000000000000000000000000000000036cbd53842c5426634e7929541ec2318f3dcf7e0000000000000000000000005fd84259d66cd46123540766be93dfe6d43130d700000000000000000000000000000000000000000000000000000000001e8480000000000000000000000000bfb1454e669e0e0de3e78bf07da131f36d2765160000000000000000",
          "blockHash": "0x6aee677dd50dea664d82bf69ddb43076424e0755eb3b6a431671a67f2ad157b1",
          "blockNumber": "0xfae6ae",
          "transactionHash": "0x536e804ae180e54f95d34c887ca9faa5db1754841bbce4fdd69a9b32b070610a",
          "transactionIndex": "0x11",
          "logIndex": "0x33",
          "removed": false
        },
        {
          "address": "0x9f3b8679c73c2fef8b59b4f3444d4e156fb70aa5",
          "topics": [
            "0x2fa9ca894982930190727e75500a97d8dc500233a5065e0f3126c48fbe0343c0",
            "0x0000000000000000000000000000000000000000000000000000000000000c0f",
            "0x000000000000000000000000036cbd53842c5426634e7929541ec2318f3dcf7e",
            "0x000000000000000000000000bfb1454e669e0e0de3e78bf07da131f36d276516"
          ],
          "data": "0x00000000000000000000000000000000000000000000000000000000001e84800000000000000000000000005fd84259d66cd46123540766be93dfe6d43130d700000000000000000000000000000000000000000000000000000000000000000000000000000000000000009f3b8679c73c2fef8b59b4f3444d4e156fb70aa50000000000000000000000005fd84259d66cd46123540766be93dfe6d43130d7",
          "blockHash": "0x6aee677dd50dea664d82bf69ddb43076424e0755eb3b6a431671a67f2ad157b1",
          "blockNumber": "0xfae6ae",
          "transactionHash": "0x536e804ae180e54f95d34c887ca9faa5db1754841bbce4fdd69a9b32b070610a",
          "transactionIndex": "0x11",
          "logIndex": "0x34",
          "removed": false
        },
        {
          "address": "0x79a1027a6a159502049f10906d333ec57e95f083",
          "topics": [
            "0x6eb224fb001ed210e379b335e35efe88672a8ce935d981a6896b27ffdf52a3b2",
            "0x00000000000000000000000093bad53ddfb6132b0ac8e37f6029163e63372cee"
          ],
          "data": "0x0000000000000000000000000000000000000000000000000000000000005a3800000000000000000000000000000000000000000000000000000000000000000000000000000000000000000000000000000000000000000000000000000080000000000000000000000000000000000000000000000000000000000000000f00000000000000000000000000000000000000000000000000000000000001df0127150000000000000000000000005fd84259d66cd46123540766be93dfe6d43130d70000008000000000000000000000000000000000000000000000000000000000001e8480000000000000000000000000000000000000000000000000000000000000004000000000000000000000000000000000000000000000000000000000000000200000000000000000000000006680dfd1c6a4867476b2e60da89354ac9327287800000000000000000000000000000000000000000000000000000000000000000000000000000000000000000000000000000000000000000000000000000000000000600000000000000000000000000000000000000000000000000000000000000000000000000000000000000000000000000000000000000000000000000003d090000000000000000000000000000000000000000000000000000000046f5399e7271500000000000000000000000000000000000000000000000000000000000000000000000000000000000000007a0a53847776f7e94cc35742971acb2217b0db810000000000000000000000007a0a53847776f7e94cc35742971acb2217b0db81000000000000000000000000bfb1454e669e0e0de3e78bf07da131f36d27651601020000000c000000000000000000000c0f00",
          "blockHash": "0x6aee677dd50dea664d82bf69ddb43076424e0755eb3b6a431671a67f2ad157b1",
          "blockNumber": "0xfae6ae",
          "transactionHash": "0x536e804ae180e54f95d34c887ca9faa5db1754841bbce4fdd69a9b32b070610a",
          "transactionIndex": "0x11",
          "logIndex": "0x35",
          "removed": false
        },
        {
          "address": "0x93bad53ddfb6132b0ac8e37f6029163e63372cee",
          "topics": [
            "0xda8540426b64ece7b164a9dce95448765f0a7263ef3ff85091c9c7361e485364",
            "0x0000000000000000000000000000000000000000000000000000000000005a38"
          ],
          "data": "0x00000000000000000000000000000000000000000000000000354a6ba7a180000000000000000000000000000000000000000000000000000000000000000000",
          "blockHash": "0x6aee677dd50dea664d82bf69ddb43076424e0755eb3b6a431671a67f2ad157b1",
          "blockNumber": "0xfae6ae",
          "transactionHash": "0x536e804ae180e54f95d34c887ca9faa5db1754841bbce4fdd69a9b32b070610a",
          "transactionIndex": "0x11",
          "logIndex": "0x36",
          "removed": false
        }
      ],
      "logsBloom": "0x000000000401000000000000000000000000000000000010000000000000048000100000000002000000000100000000000000108020400000000000002000000000020000000000000000082000000000000000000000000002000200000008000000000220004000004000000008800800000000400000101000101000000000002000400010040000000001000000100000000000000000000000002000100200000004000000000000000101000002000404000400001000000000000000000000020000000004000000000000004000000000000000000000000200200000100004000000200000000000e0010000180000000000000000040000000000",
      "type": "0x2",
      "transactionHash": "0x536e804ae180e54f95d34c887ca9faa5db1754841bbce4fdd69a9b32b070610a",
      "transactionIndex": "0x11",
      "blockHash": "0x6aee677dd50dea664d82bf69ddb43076424e0755eb3b6a431671a67f2ad157b1",
      "blockNumber": "0xfae6ae",
      "gasUsed": "0x42e21",
      "effectiveGasPrice": "0x115f7600",
      "from": "0x12b2434a1022d5787bf06056f2885fe35de62bf8",
      "to": "0xbfb1454e669e0e0de3e78bf07da131f36d276516",
      "contractAddress": null,
      "l1BaseFeeScalar": "0x44d",
      "l1BlobBaseFee": "0x1",
      "l1BlobBaseFeeScalar": "0xa118b",
      "l1Fee": "0x85118b0d9",
      "l1GasPrice": "0x3eabc1336",
      "l1GasUsed": "0x788"
    }
  ],
  "libraries": [],
  "pending": [],
  "returns": {},
  "timestamp": 1728654403,
  "chain": 84532,
  "commit": "cb33422"
}