{
  "transactions": [
    {
      "hash": "0x15baf60bf680af4bf638a332e9d6c0f80d28d73e30568866b78e656596585e15",
      "transactionType": "CALL",
      "contractName": null,
      "contractAddress": "0x036cbd53842c5426634e7929541ec2318f3dcf7e",
      "function": "approve(address,uint256)",
      "arguments": [
        "0xc54Ea818b4e46c2F997266df36369eB8Ff24Ee8E",
        "3000000"
      ],
      "transaction": {
        "from": "0x12b2434a1022d5787bf06056f2885fe35de62bf8",
        "to": "0x036cbd53842c5426634e7929541ec2318f3dcf7e",
        "gas": "0x12b1b",
        "value": "0x0",
        "input": "0x095ea7b3000000000000000000000000c54ea818b4e46c2f997266df36369eb8ff24ee8e00000000000000000000000000000000000000000000000000000000002dc6c0",
        "nonce": "0x13d",
        "chainId": "0x14a34"
      },
      "additionalContracts": [],
      "isFixedGasLimit": false
    },
    {
      "hash": "0x4496a3ccaaf50517a86627e5b794ea7ad254aee5329f2ec27a2f40d43eec4f91",
      "transactionType": "CALL",
      "contractName": null,
      "contractAddress": "0xc54ea818b4e46c2f997266df36369eb8ff24ee8e",
      "function": "sendCrossChainDeposit(uint16,address,address,uint256,address)",
      "arguments": [
        "10005",
        "0x53885340cEc92Edf309AE5573ebfe4a561F609c0",
        "0x6680dfD1c6A4867476b2e60dA89354AC93272878",
        "3000000",
        "0x036CbD53842c5426634e7929541eC2318f3dCF7e"
      ],
      "transaction": {
        "from": "0x12b2434a1022d5787bf06056f2885fe35de62bf8",
        "to": "0xc54ea818b4e46c2f997266df36369eb8ff24ee8e",
        "gas": "0x5780f",
        "value": "0x354a6ba7a18000",
        "input": "0x8d3ea489000000000000000000000000000000000000000000000000000000000000271500000000000000000000000053885340cec92edf309ae5573ebfe4a561f609c00000000000000000000000006680dfd1c6a4867476b2e60da89354ac9327287800000000000000000000000000000000000000000000000000000000002dc6c0000000000000000000000000036cbd53842c5426634e7929541ec2318f3dcf7e",
        "nonce": "0x13e",
        "chainId": "0x14a34"
      },
      "additionalContracts": [],
      "isFixedGasLimit": false
    }
  ],
  "receipts": [
    {
      "status": "0x1",
      "cumulativeGasUsed": "0x3fb7c4",
      "logs": [
        {
          "address": "0x036cbd53842c5426634e7929541ec2318f3dcf7e",
          "topics": [
            "0x8c5be1e5ebec7d5bd14f71427d1e84f3dd0314c0f7b2291e5b200ac8c7c3b925",
            "0x00000000000000000000000012b2434a1022d5787bf06056f2885fe35de62bf8",
            "0x000000000000000000000000c54ea818b4e46c2f997266df36369eb8ff24ee8e"
          ],
          "data": "0x00000000000000000000000000000000000000000000000000000000002dc6c0",
          "blockHash": "0x09cef9bb19419b68c21dc9b823b2667b8a0eeca933d64cdaf5467e17e3680e1a",
          "blockNumber": "0xfa4339",
          "transactionHash": "0x15baf60bf680af4bf638a332e9d6c0f80d28d73e30568866b78e656596585e15",
          "transactionIndex": "0x18",
          "logIndex": "0x43",
          "removed": false
        }
      ],
      "logsBloom": "0x00000000040000000000000000000000040000000000000000800000000000000000000000000000000000000000000000000000000000000000000000200000000000000000000000000000200000004000000000000000000000000000000800000000000000000000000000000000000000000000000000000000000000000000000000000000000000000000000000000000000000000000000000000010020000000000000000000000000000000000000400000000000000000000000000000000000000000000000000000000000000000000000000000000000000000010000000000000000000000020000000000000000000000000000000000000",
      "type": "0x2",
      "transactionHash": "0x15baf60bf680af4bf638a332e9d6c0f80d28d73e30568866b78e656596585e15",
      "transactionIndex": "0x18",
      "blockHash": "0x09cef9bb19419b68c21dc9b823b2667b8a0eeca933d64cdaf5467e17e3680e1a",
      "blockNumber": "0xfa4339",
      "gasUsed": "0xd88d",
      "effectiveGasPrice": "0x2fe30ff0",
      "from": "0x12b2434a1022d5787bf06056f2885fe35de62bf8",
      "to": "0x036cbd53842c5426634e7929541ec2318f3dcf7e",
      "contractAddress": null,
      "l1BaseFeeScalar": "0x44d",
      "l1BlobBaseFee": "0x1",
      "l1BlobBaseFeeScalar": "0xa118b",
      "l1Fee": "0xc4ba5973d",
      "l1GasPrice": "0x6facfb32e",
      "l1GasUsed": "0x640"
    },
    {
      "status": "0x1",
      "cumulativeGasUsed": "0x43ad63",
      "logs": [
        {
          "address": "0x036cbd53842c5426634e7929541ec2318f3dcf7e",
          "topics": [
            "0xddf252ad1be2c89b69c2b068fc378daa952ba7f163c4a11628f55a4df523b3ef",
            "0x00000000000000000000000012b2434a1022d5787bf06056f2885fe35de62bf8",
            "0x000000000000000000000000c54ea818b4e46c2f997266df36369eb8ff24ee8e"
          ],
          "data": "0x00000000000000000000000000000000000000000000000000000000002dc6c0",
          "blockHash": "0x09cef9bb19419b68c21dc9b823b2667b8a0eeca933d64cdaf5467e17e3680e1a",
          "blockNumber": "0xfa4339",
          "transactionHash": "0x4496a3ccaaf50517a86627e5b794ea7ad254aee5329f2ec27a2f40d43eec4f91",
          "transactionIndex": "0x19",
          "logIndex": "0x44",
          "removed": false
        },
        {
          "address": "0x036cbd53842c5426634e7929541ec2318f3dcf7e",
          "topics": [
            "0x8c5be1e5ebec7d5bd14f71427d1e84f3dd0314c0f7b2291e5b200ac8c7c3b925",
            "0x000000000000000000000000c54ea818b4e46c2f997266df36369eb8ff24ee8e",
            "0x00000000000000000000000086f55a04690fd7815a3d802bd587e83ea888b239"
          ],
          "data": "0x00000000000000000000000000000000000000000000000000000000002dc6c0",
          "blockHash": "0x09cef9bb19419b68c21dc9b823b2667b8a0eeca933d64cdaf5467e17e3680e1a",
          "blockNumber": "0xfa4339",
          "transactionHash": "0x4496a3ccaaf50517a86627e5b794ea7ad254aee5329f2ec27a2f40d43eec4f91",
          "transactionIndex": "0x19",
          "logIndex": "0x45",
          "removed": false
        },
        {
          "address": "0x036cbd53842c5426634e7929541ec2318f3dcf7e",
          "topics": [
            "0xddf252ad1be2c89b69c2b068fc378daa952ba7f163c4a11628f55a4df523b3ef",
            "0x000000000000000000000000c54ea818b4e46c2f997266df36369eb8ff24ee8e",
            "0x00000000000000000000000086f55a04690fd7815a3d802bd587e83ea888b239"
          ],
          "data": "0x00000000000000000000000000000000000000000000000000000000002dc6c0",
          "blockHash": "0x09cef9bb19419b68c21dc9b823b2667b8a0eeca933d64cdaf5467e17e3680e1a",
          "blockNumber": "0xfa4339",
          "transactionHash": "0x4496a3ccaaf50517a86627e5b794ea7ad254aee5329f2ec27a2f40d43eec4f91",
          "transactionIndex": "0x19",
          "logIndex": "0x46",
          "removed": false
        },
        {
          "address": "0x79a1027a6a159502049f10906d333ec57e95f083",
          "topics": [
            "0x6eb224fb001ed210e379b335e35efe88672a8ce935d981a6896b27ffdf52a3b2",
            "0x00000000000000000000000086f55a04690fd7815a3d802bd587e83ea888b239"
          ],
          "data": "0x000000000000000000000000000000000000000000000000000000000000009900000000000000000000000000000000000000000000000000000000000000000000000000000000000000000000000000000000000000000000000000000080000000000000000000000000000000000000000000000000000000000000000100000000000000000000000000000000000000000000000000000000000000850300000000000000000000000000000000000000000000000000000000002dc6c0000000000000000000000000036cbd53842c5426634e7929541ec2318f3dcf7e271400000000000000000000000053885340cec92edf309ae5573ebfe4a561f609c02715000000000000000000000000c54ea818b4e46c2f997266df36369eb8ff24ee8e000000000000000000000000000000000000000000000000000000",
          "blockHash": "0x09cef9bb19419b68c21dc9b823b2667b8a0eeca933d64cdaf5467e17e3680e1a",
          "blockNumber": "0xfa4339",
          "transactionHash": "0x4496a3ccaaf50517a86627e5b794ea7ad254aee5329f2ec27a2f40d43eec4f91",
          "transactionIndex": "0x19",
          "logIndex": "0x47",
          "removed": false
        },
        {
          "address": "0x79a1027a6a159502049f10906d333ec57e95f083",
          "topics": [
            "0x6eb224fb001ed210e379b335e35efe88672a8ce935d981a6896b27ffdf52a3b2",
            "0x00000000000000000000000093bad53ddfb6132b0ac8e37f6029163e63372cee"
          ],
          "data": "0x0000000000000000000000000000000000000000000000000000000000005a2800000000000000000000000000000000000000000000000000000000000000000000000000000000000000000000000000000000000000000000000000000080000000000000000000000000000000000000000000000000000000000000000f000000000000000000000000000000000000000000000000000000000000019901271500000000000000000000000053885340cec92edf309ae5573ebfe4a561f609c0000000200000000000000000000000006680dfd1c6a4867476b2e60da89354ac9327287800000000000000000000000000000000000000000000000000000000000000000000000000000000000000000000000000000000000000000000000000000000000000600000000000000000000000000000000000000000000000000000000000000000000000000000000000000000000000000000000000000000000000000003d090000000000000000000000000000000000000000000000000000000046f5399e7271500000000000000000000000000000000000000000000000000000000000000000000000000000000000000007a0a53847776f7e94cc35742971acb2217b0db810000000000000000000000007a0a53847776f7e94cc35742971acb2217b0db81000000000000000000000000c54ea818b4e46c2f997266df36369eb8ff24ee8e0101271400000000000000000000000086f55a04690fd7815a3d802bd587e83ea888b239000000000000009900000000000000",
          "blockHash": "0x09cef9bb19419b68c21dc9b823b2667b8a0eeca933d64cdaf5467e17e3680e1a",
          "blockNumber": "0xfa4339",
          "transactionHash": "0x4496a3ccaaf50517a86627e5b794ea7ad254aee5329f2ec27a2f40d43eec4f91",
          "transactionIndex": "0x19",
          "logIndex": "0x48",
          "removed": false
        },
        {
          "address": "0x93bad53ddfb6132b0ac8e37f6029163e63372cee",
          "topics": [
            "0xda8540426b64ece7b164a9dce95448765f0a7263ef3ff85091c9c7361e485364",
            "0x0000000000000000000000000000000000000000000000000000000000005a28"
          ],
          "data": "0x00000000000000000000000000000000000000000000000000354a6ba7a180000000000000000000000000000000000000000000000000000000000000000000",
          "blockHash": "0x09cef9bb19419b68c21dc9b823b2667b8a0eeca933d64cdaf5467e17e3680e1a",
          "blockNumber": "0xfa4339",
          "transactionHash": "0x4496a3ccaaf50517a86627e5b794ea7ad254aee5329f2ec27a2f40d43eec4f91",
          "transactionIndex": "0x19",
          "logIndex": "0x49",
          "removed": false
        }
      ],
      "logsBloom": "0x000000000401000000000000000000000400000000000000008000000000000000100000000000000000000100000000000000008000400000000000082800000000020000000000000000082000000040000000000000000000000000000008001100000000000000000000000000800000000000000000000000100000000000000000000000000000000001000000000000000000000000000000000000100200000004000000000000000101000002000404000000000000000000000000008000020000000000000000000000004000000000000000000000000000000000100000000000000000000400a0000000000000000000000000000000000000",
      "type": "0x2",
      "transactionHash": "0x4496a3ccaaf50517a86627e5b794ea7ad254aee5329f2ec27a2f40d43eec4f91",
      "transactionIndex": "0x19",
      "blockHash": "0x09cef9bb19419b68c21dc9b823b2667b8a0eeca933d64cdaf5467e17e3680e1a",
      "blockNumber": "0xfa4339",
      "gasUsed": "0x3f59f",
      "effectiveGasPrice": "0x2fe30ff0",
      "from": "0x12b2434a1022d5787bf06056f2885fe35de62bf8",
      "to": "0xc54ea818b4e46c2f997266df36369eb8ff24ee8e",
      "contractAddress": null,
      "l1BaseFeeScalar": "0x44d",
      "l1BlobBaseFee": "0x1",
      "l1BlobBaseFeeScalar": "0xa118b",
      "l1Fee": "0x1149d71216",
      "l1GasPrice": "0x6facfb32e",
      "l1GasUsed": "0x8c9"
    }
  ],
  "libraries": [],
  "pending": [],
  "returns": {},
  "timestamp": 1728570707,
  "chain": 84532,
  "commit": "136d724"
}