{
  "transactions": [
    {
      "hash": "0x57448c061ce75afccf1888161e54e37b8153876018f063c92548031aeb776ee8",
      "transactionType": "CALL",
      "contractName": null,
      "contractAddress": "0x036cbd53842c5426634e7929541ec2318f3dcf7e",
      "function": "approve(address,uint256)",
      "arguments": [
        "0x566a16fD514acBe9013E37cc1C9F27058b727531",
        "3000000"
      ],
      "transaction": {
        "from": "0x12b2434a1022d5787bf06056f2885fe35de62bf8",
        "to": "0x036cbd53842c5426634e7929541ec2318f3dcf7e",
        "gas": "0x12b1b",
        "value": "0x0",
        "input": "0x095ea7b3000000000000000000000000566a16fd514acbe9013e37cc1c9f27058b72753100000000000000000000000000000000000000000000000000000000002dc6c0",
        "nonce": "0x13a",
        "chainId": "0x14a34"
      },
      "additionalContracts": [],
      "isFixedGasLimit": false
    },
    {
      "hash": "0x7e7afa5d86a8a566d0098d6daeb78f104d69190433fbe3f2cf9378cfc98df98d",
      "transactionType": "CALL",
      "contractName": null,
      "contractAddress": "0x566a16fd514acbe9013e37cc1c9f27058b727531",
      "function": "sendCrossChainDeposit(uint16,address,address,uint256,address)",
      "arguments": [
        "10005",
        "0x436fB1cd4852235459D4806DD1d4958e7692E461",
        "0x6680dfD1c6A4867476b2e60dA89354AC93272878",
        "3000000",
        "0x036CbD53842c5426634e7929541eC2318f3dCF7e"
      ],
      "transaction": {
        "from": "0x12b2434a1022d5787bf06056f2885fe35de62bf8",
        "to": "0x566a16fd514acbe9013e37cc1c9f27058b727531",
        "gas": "0x5780f",
        "value": "0x354a6ba7a18000",
        "input": "0x8d3ea4890000000000000000000000000000000000000000000000000000000000002715000000000000000000000000436fb1cd4852235459d4806dd1d4958e7692e4610000000000000000000000006680dfd1c6a4867476b2e60da89354ac9327287800000000000000000000000000000000000000000000000000000000002dc6c0000000000000000000000000036cbd53842c5426634e7929541ec2318f3dcf7e",
        "nonce": "0x13b",
        "chainId": "0x14a34"
      },
      "additionalContracts": [],
      "isFixedGasLimit": false
    }
  ],
  "receipts": [
    {
      "status": "0x1",
      "cumulativeGasUsed": "0x26e8b2",
      "logs": [
        {
          "address": "0x036cbd53842c5426634e7929541ec2318f3dcf7e",
          "topics": [
            "0x8c5be1e5ebec7d5bd14f71427d1e84f3dd0314c0f7b2291e5b200ac8c7c3b925",
            "0x00000000000000000000000012b2434a1022d5787bf06056f2885fe35de62bf8",
            "0x000000000000000000000000566a16fd514acbe9013e37cc1c9f27058b727531"
          ],
          "data": "0x00000000000000000000000000000000000000000000000000000000002dc6c0",
          "blockHash": "0x3d5b0395dff759d1fe3b5db6a137ad747998732c822e9e831ef3043c784468c6",
          "blockNumber": "0xfa3fc0",
          "transactionHash": "0x57448c061ce75afccf1888161e54e37b8153876018f063c92548031aeb776ee8",
          "transactionIndex": "0x5",
          "logIndex": "0x11",
          "removed": false
        }
      ],
      "logsBloom": "0x00000000040000000000000000000000000000000000000000000000000000000000000000200000000000000000000000000000000000000000000000200000000000000000000000000000200000000000000000000000000000000000000800008000000000000000000000000000000000000000000000000000000000000000000000000000000000000000000000000000000000000040000000000010020000000000000000000000000000000000000400000000000000000000000000000000000000000000000000000000000000000000000000000000000000000010000000000000000000000020000000000000000000000000000000000000",
      "type": "0x2",
      "transactionHash": "0x57448c061ce75afccf1888161e54e37b8153876018f063c92548031aeb776ee8",
      "transactionIndex": "0x5",
      "blockHash": "0x3d5b0395dff759d1fe3b5db6a137ad747998732c822e9e831ef3043c784468c6",
      "blockNumber": "0xfa3fc0",
      "gasUsed": "0xd88d",
      "effectiveGasPrice": "0x2f86b60b",
      "from": "0x12b2434a1022d5787bf06056f2885fe35de62bf8",
      "to": "0x036cbd53842c5426634e7929541ec2318f3dcf7e",
      "contractAddress": null,
      "l1BaseFeeScalar": "0x44d",
      "l1BlobBaseFee": "0x1",
      "l1BlobBaseFeeScalar": "0xa118b",
      "l1Fee": "0x62812be0b",
      "l1GasPrice": "0x37eaecb88",
      "l1GasUsed": "0x640"
    },
    {
      "status": "0x1",
      "cumulativeGasUsed": "0x2ade51",
      "logs": [
        {
          "address": "0x036cbd53842c5426634e7929541ec2318f3dcf7e",
          "topics": [
            "0xddf252ad1be2c89b69c2b068fc378daa952ba7f163c4a11628f55a4df523b3ef",
            "0x00000000000000000000000012b2434a1022d5787bf06056f2885fe35de62bf8",
            "0x000000000000000000000000566a16fd514acbe9013e37cc1c9f27058b727531"
          ],
          "data": "0x00000000000000000000000000000000000000000000000000000000002dc6c0",
          "blockHash": "0x3d5b0395dff759d1fe3b5db6a137ad747998732c822e9e831ef3043c784468c6",
          "blockNumber": "0xfa3fc0",
          "transactionHash": "0x7e7afa5d86a8a566d0098d6daeb78f104d69190433fbe3f2cf9378cfc98df98d",
          "transactionIndex": "0x6",
          "logIndex": "0x12",
          "removed": false
        },
        {
          "address": "0x036cbd53842c5426634e7929541ec2318f3dcf7e",
          "topics": [
            "0x8c5be1e5ebec7d5bd14f71427d1e84f3dd0314c0f7b2291e5b200ac8c7c3b925",
            "0x000000000000000000000000566a16fd514acbe9013e37cc1c9f27058b727531",
            "0x00000000000000000000000086f55a04690fd7815a3d802bd587e83ea888b239"
          ],
          "data": "0x00000000000000000000000000000000000000000000000000000000002dc6c0",
          "blockHash": "0x3d5b0395dff759d1fe3b5db6a137ad747998732c822e9e831ef3043c784468c6",
          "blockNumber": "0xfa3fc0",
          "transactionHash": "0x7e7afa5d86a8a566d0098d6daeb78f104d69190433fbe3f2cf9378cfc98df98d",
          "transactionIndex": "0x6",
          "logIndex": "0x13",
          "removed": false
        },
        {
          "address": "0x036cbd53842c5426634e7929541ec2318f3dcf7e",
          "topics": [
            "0xddf252ad1be2c89b69c2b068fc378daa952ba7f163c4a11628f55a4df523b3ef",
            "0x000000000000000000000000566a16fd514acbe9013e37cc1c9f27058b727531",
            "0x00000000000000000000000086f55a04690fd7815a3d802bd587e83ea888b239"
          ],
          "data": "0x00000000000000000000000000000000000000000000000000000000002dc6c0",
          "blockHash": "0x3d5b0395dff759d1fe3b5db6a137ad747998732c822e9e831ef3043c784468c6",
          "blockNumber": "0xfa3fc0",
          "transactionHash": "0x7e7afa5d86a8a566d0098d6daeb78f104d69190433fbe3f2cf9378cfc98df98d",
          "transactionIndex": "0x6",
          "logIndex": "0x14",
          "removed": false
        },
        {
          "address": "0x79a1027a6a159502049f10906d333ec57e95f083",
          "topics": [
            "0x6eb224fb001ed210e379b335e35efe88672a8ce935d981a6896b27ffdf52a3b2",
            "0x00000000000000000000000086f55a04690fd7815a3d802bd587e83ea888b239"
          ],
          "data": "0x000000000000000000000000000000000000000000000000000000000000009800000000000000000000000000000000000000000000000000000000000000000000000000000000000000000000000000000000000000000000000000000080000000000000000000000000000000000000000000000000000000000000000100000000000000000000000000000000000000000000000000000000000000850300000000000000000000000000000000000000000000000000000000002dc6c0000000000000000000000000036cbd53842c5426634e7929541ec2318f3dcf7e2714000000000000000000000000436fb1cd4852235459d4806dd1d4958e7692e4612715000000000000000000000000566a16fd514acbe9013e37cc1c9f27058b727531000000000000000000000000000000000000000000000000000000",
          "blockHash": "0x3d5b0395dff759d1fe3b5db6a137ad747998732c822e9e831ef3043c784468c6",
          "blockNumber": "0xfa3fc0",
          "transactionHash": "0x7e7afa5d86a8a566d0098d6daeb78f104d69190433fbe3f2cf9378cfc98df98d",
          "transactionIndex": "0x6",
          "logIndex": "0x15",
          "removed": false
        },
        {
          "address": "0x79a1027a6a159502049f10906d333ec57e95f083",
          "topics": [
            "0x6eb224fb001ed210e379b335e35efe88672a8ce935d981a6896b27ffdf52a3b2",
            "0x00000000000000000000000093bad53ddfb6132b0ac8e37f6029163e63372cee"
          ],
          "data": "0x0000000000000000000000000000000000000000000000000000000000005a2700000000000000000000000000000000000000000000000000000000000000000000000000000000000000000000000000000000000000000000000000000080000000000000000000000000000000000000000000000000000000000000000f0000000000000000000000000000000000000000000000000000000000000199012715000000000000000000000000436fb1cd4852235459d4806dd1d4958e7692e461000000200000000000000000000000006680dfd1c6a4867476b2e60da89354ac9327287800000000000000000000000000000000000000000000000000000000000000000000000000000000000000000000000000000000000000000000000000000000000000600000000000000000000000000000000000000000000000000000000000000000000000000000000000000000000000000000000000000000000000000003d090000000000000000000000000000000000000000000000000000000046f5399e7271500000000000000000000000000000000000000000000000000000000000000000000000000000000000000007a0a53847776f7e94cc35742971acb2217b0db810000000000000000000000007a0a53847776f7e94cc35742971acb2217b0db81000000000000000000000000566a16fd514acbe9013e37cc1c9f27058b7275310101271400000000000000000000000086f55a04690fd7815a3d802bd587e83ea888b239000000000000009800000000000000",
          "blockHash": "0x3d5b0395dff759d1fe3b5db6a137ad747998732c822e9e831ef3043c784468c6",
          "blockNumber": "0xfa3fc0",
          "transactionHash": "0x7e7afa5d86a8a566d0098d6daeb78f104d69190433fbe3f2cf9378cfc98df98d",
          "transactionIndex": "0x6",
          "logIndex": "0x16",
          "removed": false
        },
        {
          "address": "0x93bad53ddfb6132b0ac8e37f6029163e63372cee",
          "topics": [
            "0xda8540426b64ece7b164a9dce95448765f0a7263ef3ff85091c9c7361e485364",
            "0x0000000000000000000000000000000000000000000000000000000000005a27"
          ],
          "data": "0x00000000000000000000000000000000000000000000000000354a6ba7a180000000000000000000000000000000000000000000000000000000000000000000",
          "blockHash": "0x3d5b0395dff759d1fe3b5db6a137ad747998732c822e9e831ef3043c784468c6",
          "blockNumber": "0xfa3fc0",
          "transactionHash": "0x7e7afa5d86a8a566d0098d6daeb78f104d69190433fbe3f2cf9378cfc98df98d",
          "transactionIndex": "0x6",
          "logIndex": "0x17",
          "removed": false
        }
      ],
      "logsBloom": "0x000000000401000000000000000000000000000000000000000000000000000000100000002000000000080100000000000000008000400000000000082800000000020000000000000000082000000000000000000000000000000000000008000181000000000000000000000000800000000000000008000000100000000000000000000000000000000001000000000000000000000000400000000000100200000004000000000000000101000002000404000000000000000000000000000000020000000000000000000000004000000000000000000000000000000000100000000000000000000000a0000000000000000000000000000000000000",
      "type": "0x2",
      "transactionHash": "0x7e7afa5d86a8a566d0098d6daeb78f104d69190433fbe3f2cf9378cfc98df98d",
      "transactionIndex": "0x6",
      "blockHash": "0x3d5b0395dff759d1fe3b5db6a137ad747998732c822e9e831ef3043c784468c6",
      "blockNumber": "0xfa3fc0",
      "gasUsed": "0x3f59f",
      "effectiveGasPrice": "0x2f86b60b",
      "from": "0x12b2434a1022d5787bf06056f2885fe35de62bf8",
      "to": "0x566a16fd514acbe9013e37cc1c9f27058b727531",
      "contractAddress": null,
      "l1BaseFeeScalar": "0x44d",
      "l1BlobBaseFee": "0x1",
      "l1BlobBaseFeeScalar": "0xa118b",
      "l1Fee": "0x8b5446db0",
      "l1GasPrice": "0x37eaecb88",
      "l1GasUsed": "0x8d7"
    }
  ],
  "libraries": [],
  "pending": [],
  "returns": {},
  "timestamp": 1728568934,
  "chain": 84532,
  "commit": "136d724"
}