{
  "transactions": [
    {
      "hash": "0x219fb4b9b9efac69d2bb29d1c411ba5c7135eaa0b4c5de25620a5e791e166aa1",
      "transactionType": "CALL",
      "contractName": null,
      "contractAddress": "0x036cbd53842c5426634e7929541ec2318f3dcf7e",
      "function": "approve(address,uint256)",
      "arguments": [
        "0x566a16fD514acBe9013E37cc1C9F27058b727531",
        "3000000"
      ],
      "transaction": {
        "from": "0x12b2434a1022d5787bf06056f2885fe35de62bf8",
        "to": "0x036cbd53842c5426634e7929541ec2318f3dcf7e",
        "gas": "0x12b1b",
        "value": "0x0",
        "input": "0x095ea7b3000000000000000000000000566a16fd514acbe9013e37cc1c9f27058b72753100000000000000000000000000000000000000000000000000000000002dc6c0",
        "nonce": "0x138",
        "chainId": "0x14a34"
      },
      "additionalContracts": [],
      "isFixedGasLimit": false
    },
    {
      "hash": "0x88364012c5099a0fcd87f033a4b6560554fe9bf32ec13ab85ba6723c8cf6209c",
      "transactionType": "CALL",
      "contractName": null,
      "contractAddress": "0x566a16fd514acbe9013e37cc1c9f27058b727531",
      "function": "sendCrossChainDeposit(uint16,address,address,uint256,address)",
      "arguments": [
        "10005",
        "0xeFbdaf45caBc4C1345c77225812603F8094D27d1",
        "0x6680dfD1c6A4867476b2e60dA89354AC93272878",
        "3000000",
        "0x036CbD53842c5426634e7929541eC2318f3dCF7e"
      ],
      "transaction": {
        "from": "0x12b2434a1022d5787bf06056f2885fe35de62bf8",
        "to": "0x566a16fd514acbe9013e37cc1c9f27058b727531",
        "gas": "0x5780f",
        "value": "0x354a6ba7a18000",
        "input": "0x8d3ea4890000000000000000000000000000000000000000000000000000000000002715000000000000000000000000efbdaf45cabc4c1345c77225812603f8094d27d10000000000000000000000006680dfd1c6a4867476b2e60da89354ac9327287800000000000000000000000000000000000000000000000000000000002dc6c0000000000000000000000000036cbd53842c5426634e7929541ec2318f3dcf7e",
        "nonce": "0x139",
        "chainId": "0x14a34"
      },
      "additionalContracts": [],
      "isFixedGasLimit": false
    }
  ],
  "receipts": [
    {
      "status": "0x1",
      "cumulativeGasUsed": "0x275eee",
      "logs": [
        {
          "address": "0x036cbd53842c5426634e7929541ec2318f3dcf7e",
          "topics": [
            "0x8c5be1e5ebec7d5bd14f71427d1e84f3dd0314c0f7b2291e5b200ac8c7c3b925",
            "0x00000000000000000000000012b2434a1022d5787bf06056f2885fe35de62bf8",
            "0x000000000000000000000000566a16fd514acbe9013e37cc1c9f27058b727531"
          ],
          "data": "0x00000000000000000000000000000000000000000000000000000000002dc6c0",
          "blockHash": "0xb42afad70acbbb7a783c179262484cdfeec43dbc9b90ed595cc749ac774fb550",
          "blockNumber": "0xfa3dd5",
          "transactionHash": "0x219fb4b9b9efac69d2bb29d1c411ba5c7135eaa0b4c5de25620a5e791e166aa1",
          "transactionIndex": "0xf",
          "logIndex": "0x15",
          "removed": false
        }
      ],
      "logsBloom": "0x00000000040000000000000000000000000000000000000000000000000000000000000000200000000000000000000000000000000000000000000000200000000000000000000000000000200000000000000000000000000000000000000800008000000000000000000000000000000000000000000000000000000000000000000000000000000000000000000000000000000000000040000000000010020000000000000000000000000000000000000400000000000000000000000000000000000000000000000000000000000000000000000000000000000000000010000000000000000000000020000000000000000000000000000000000000",
      "type": "0x2",
      "transactionHash": "0x219fb4b9b9efac69d2bb29d1c411ba5c7135eaa0b4c5de25620a5e791e166aa1",
      "transactionIndex": "0xf",
      "blockHash": "0xb42afad70acbbb7a783c179262484cdfeec43dbc9b90ed595cc749ac774fb550",
      "blockNumber": "0xfa3dd5",
      "gasUsed": "0xd88d",
      "effectiveGasPrice": "0x2dcd82d8",
      "from": "0x12b2434a1022d5787bf06056f2885fe35de62bf8",
      "to": "0x036cbd53842c5426634e7929541ec2318f3dcf7e",
      "contractAddress": null,
      "l1BaseFeeScalar": "0x44d",
      "l1BlobBaseFee": "0x1",
      "l1BlobBaseFeeScalar": "0xa118b",
      "l1Fee": "0x21718cfcd",
      "l1GasPrice": "0x12fc19623",
      "l1GasUsed": "0x640"
    },
    {
      "status": "0x1",
      "cumulativeGasUsed": "0x2d204c",
      "logs": [
        {
          "address": "0x036cbd53842c5426634e7929541ec2318f3dcf7e",
          "topics": [
            "0xddf252ad1be2c89b69c2b068fc378daa952ba7f163c4a11628f55a4df523b3ef",
            "0x00000000000000000000000012b2434a1022d5787bf06056f2885fe35de62bf8",
            "0x000000000000000000000000566a16fd514acbe9013e37cc1c9f27058b727531"
          ],
          "data": "0x00000000000000000000000000000000000000000000000000000000002dc6c0",
          "blockHash": "0x7c9b78f4f2de11728dc723fa79f9d006ea53756fd1a8b4bf7badcf87e4792f91",
          "blockNumber": "0xfa3dd6",
          "transactionHash": "0x88364012c5099a0fcd87f033a4b6560554fe9bf32ec13ab85ba6723c8cf6209c",
          "transactionIndex": "0x18",
          "logIndex": "0x24",
          "removed": false
        },
        {
          "address": "0x036cbd53842c5426634e7929541ec2318f3dcf7e",
          "topics": [
            "0x8c5be1e5ebec7d5bd14f71427d1e84f3dd0314c0f7b2291e5b200ac8c7c3b925",
            "0x000000000000000000000000566a16fd514acbe9013e37cc1c9f27058b727531",
            "0x00000000000000000000000086f55a04690fd7815a3d802bd587e83ea888b239"
          ],
          "data": "0x00000000000000000000000000000000000000000000000000000000002dc6c0",
          "blockHash": "0x7c9b78f4f2de11728dc723fa79f9d006ea53756fd1a8b4bf7badcf87e4792f91",
          "blockNumber": "0xfa3dd6",
          "transactionHash": "0x88364012c5099a0fcd87f033a4b6560554fe9bf32ec13ab85ba6723c8cf6209c",
          "transactionIndex": "0x18",
          "logIndex": "0x25",
          "removed": false
        },
        {
          "address": "0x036cbd53842c5426634e7929541ec2318f3dcf7e",
          "topics": [
            "0xddf252ad1be2c89b69c2b068fc378daa952ba7f163c4a11628f55a4df523b3ef",
            "0x000000000000000000000000566a16fd514acbe9013e37cc1c9f27058b727531",
            "0x00000000000000000000000086f55a04690fd7815a3d802bd587e83ea888b239"
          ],
          "data": "0x00000000000000000000000000000000000000000000000000000000002dc6c0",
          "blockHash": "0x7c9b78f4f2de11728dc723fa79f9d006ea53756fd1a8b4bf7badcf87e4792f91",
          "blockNumber": "0xfa3dd6",
          "transactionHash": "0x88364012c5099a0fcd87f033a4b6560554fe9bf32ec13ab85ba6723c8cf6209c",
          "transactionIndex": "0x18",
          "logIndex": "0x26",
          "removed": false
        },
        {
          "address": "0x79a1027a6a159502049f10906d333ec57e95f083",
          "topics": [
            "0x6eb224fb001ed210e379b335e35efe88672a8ce935d981a6896b27ffdf52a3b2",
            "0x00000000000000000000000086f55a04690fd7815a3d802bd587e83ea888b239"
          ],
          "data": "0x000000000000000000000000000000000000000000000000000000000000009700000000000000000000000000000000000000000000000000000000000000000000000000000000000000000000000000000000000000000000000000000080000000000000000000000000000000000000000000000000000000000000000100000000000000000000000000000000000000000000000000000000000000850300000000000000000000000000000000000000000000000000000000002dc6c0000000000000000000000000036cbd53842c5426634e7929541ec2318f3dcf7e2714000000000000000000000000efbdaf45cabc4c1345c77225812603f8094d27d12715000000000000000000000000566a16fd514acbe9013e37cc1c9f27058b727531000000000000000000000000000000000000000000000000000000",
          "blockHash": "0x7c9b78f4f2de11728dc723fa79f9d006ea53756fd1a8b4bf7badcf87e4792f91",
          "blockNumber": "0xfa3dd6",
          "transactionHash": "0x88364012c5099a0fcd87f033a4b6560554fe9bf32ec13ab85ba6723c8cf6209c",
          "transactionIndex": "0x18",
          "logIndex": "0x27",
          "removed": false
        },
        {
          "address": "0x79a1027a6a159502049f10906d333ec57e95f083",
          "topics": [
            "0x6eb224fb001ed210e379b335e35efe88672a8ce935d981a6896b27ffdf52a3b2",
            "0x00000000000000000000000093bad53ddfb6132b0ac8e37f6029163e63372cee"
          ],
          "data": "0x0000000000000000000000000000000000000000000000000000000000005a2600000000000000000000000000000000000000000000000000000000000000000000000000000000000000000000000000000000000000000000000000000080000000000000000000000000000000000000000000000000000000000000000f0000000000000000000000000000000000000000000000000000000000000199012715000000000000000000000000efbdaf45cabc4c1345c77225812603f8094d27d1000000200000000000000000000000006680dfd1c6a4867476b2e60da89354ac9327287800000000000000000000000000000000000000000000000000000000000000000000000000000000000000000000000000000000000000000000000000000000000000600000000000000000000000000000000000000000000000000000000000000000000000000000000000000000000000000000000000000000000000000003d090000000000000000000000000000000000000000000000000000000046f5399e7271500000000000000000000000000000000000000000000000000000000000000000000000000000000000000007a0a53847776f7e94cc35742971acb2217b0db810000000000000000000000007a0a53847776f7e94cc35742971acb2217b0db81000000000000000000000000566a16fd514acbe9013e37cc1c9f27058b7275310101271400000000000000000000000086f55a04690fd7815a3d802bd587e83ea888b239000000000000009700000000000000",
          "blockHash": "0x7c9b78f4f2de11728dc723fa79f9d006ea53756fd1a8b4bf7badcf87e4792f91",
          "blockNumber": "0xfa3dd6",
          "transactionHash": "0x88364012c5099a0fcd87f033a4b6560554fe9bf32ec13ab85ba6723c8cf6209c",
          "transactionIndex": "0x18",
          "logIndex": "0x28",
          "removed": false
        },
        {
          "address": "0x93bad53ddfb6132b0ac8e37f6029163e63372cee",
          "topics": [
            "0xda8540426b64ece7b164a9dce95448765f0a7263ef3ff85091c9c7361e485364",
            "0x0000000000000000000000000000000000000000000000000000000000005a26"
          ],
          "data": "0x00000000000000000000000000000000000000000000000000354a6ba7a180000000000000000000000000000000000000000000000000000000000000000000",
          "blockHash": "0x7c9b78f4f2de11728dc723fa79f9d006ea53756fd1a8b4bf7badcf87e4792f91",
          "blockNumber": "0xfa3dd6",
          "transactionHash": "0x88364012c5099a0fcd87f033a4b6560554fe9bf32ec13ab85ba6723c8cf6209c",
          "transactionIndex": "0x18",
          "logIndex": "0x29",
          "removed": false
        }
      ],
      "logsBloom": "0x000000000401000000000000000000000000000000000000000000000000000000100000002000000000000100000000000000008000400000000000082800000000020000000000000000082000000000000000000000000000000000000008000180000000000000000000000000800000000000000000000001100000000000000000000000000000000001000000000000000000000000400000000000100200000004000000000020000101000002000404000000000000000000000000000000020000000000000000000000004000000000000000000000000000000000100000000000000000000000a0000000000000000001000000000000000000",
      "type": "0x2",
      "transactionHash": "0x88364012c5099a0fcd87f033a4b6560554fe9bf32ec13ab85ba6723c8cf6209c",
      "transactionIndex": "0x18",
      "blockHash": "0x7c9b78f4f2de11728dc723fa79f9d006ea53756fd1a8b4bf7badcf87e4792f91",
      "blockNumber": "0xfa3dd6",
      "gasUsed": "0x3f59f",
      "effectiveGasPrice": "0x2de6daab",
      "from": "0x12b2434a1022d5787bf06056f2885fe35de62bf8",
      "to": "0x566a16fd514acbe9013e37cc1c9f27058b727531",
      "contractAddress": null,
      "l1BaseFeeScalar": "0x44d",
      "l1BlobBaseFee": "0x1",
      "l1BlobBaseFeeScalar": "0xa118b",
      "l1Fee": "0x2f4dd5855",
      "l1GasPrice": "0x12fc19623",
      "l1GasUsed": "0x8d7"
    }
  ],
  "libraries": [],
  "pending": [],
  "returns": {},
  "timestamp": 1728567954,
  "chain": 84532,
  "commit": "136d724"
}